:100003007FBFDFEFF7FBFDFE00003E4141413E00B5
:1000130000000000217F010000002745454539000D
:10002300000022494949360000000C14247F0400D3
:100033000000725151514E0000003E4949492600CB
:1000430000004040404F70000000364949493600E7
:100053000000324949493E0000007F484830000013
:1000630000007F484C73000000007F4949490000AD
:1000730000003E414162000000007F08087F00004D
:10008300000000FFFF000000007F1008047F000055
:080093007C4848FF48487C004E
:10012D00E4FDFCC3ED9FEC9E5015E4FBFA0BBB0008
:0F013D00010AEB64794A70F50DBD00010C80E4F6
:01014C002290
:1000FE00C2B6C2B5E4FEEEC3940874809480501864
:10010E00EFC4131313540124FF92B4EF25E0FFD272
:0E011E00B60000C2B60E80DED2B50000C2B53B
:01012C0022B0
:10009B00E4F509F50AE4F9E9C394087480948050F7
:1000AB0035E4FF1200FEE990000393F580E5087537
:1000BB00F008A4240BF582E43400F583E58229F5DE
:1000CB0082E43583F583E493FF1200FE7F027E000A
:1000DB0012012D0980C1050AE50A70020509C394B6
:1000EB0032E509940040AE0508E508641270A1F5ED
:0300FB0008809DDD
:0300000002014DAD
:0C014D00787FE4F6D8FD75810A02009B63
:00000001FF
