:03000000020D7876
:0C0D7800787FE4F6D8FD758123020DBFE2
:0F0FA0003F065B4F666D7D077F6F00000000000E
:100F7A000108001009003F003F003F003F003F000A
:050F8A003F003F003FA5
:0B0FAF00120F90120F63120C4C80F820
:040C4C008E198F1A54
:100C5000781B7C007D007BFF7A0F79AA7E007F05E0
:100C6000120B8DC3E519648094805016750D0075C4
:100C70000E40E51A151A70021519631AFF6319FF61
:100C80008005E4F50DF50EAC19AD1AEC120A038FD0
:100C9000238E228D218C20E4FFFE7DC87C40AB2377
:100CA000AA22A921A8201208F8E4FBFAF9783F1239
:100CB0000807120A3C8E198F1AE4F509F50AF50B9C
:100CC000F50CAE19AF1A7C277D10120BB374A02F50
:100CD000F582740F3EF583E493750F00F510AE199D
:100CE000AF1A7C277D10120BB37E037FE8CFCDCFE8
:100CF000CECCCE120BB374A02FF582740F3EF583C9
:100D0000E493751100F512AE19AF1A7C037DE81259
:100D10000BB37E007F64CFCDCFCECCCE120BB3749D
:100D2000A02FF582740F3EF583E493448075130081
:100D3000F514AE19AF1A7C007D64120BB37E007FF0
:100D40000ACFCDCFCECCCE120BB374A02FF58274C8
:100D50000F3EF583E493751500F516AE19AF1A7CB6
:100D6000007D0A120BB374A02DF582740F3CF5833D
:070D7000E493751700F5186C
:010D77002259
:100F9000758902758C9C758A9CD2A9D2AFD28C229D
:03000B00020E04DE
:100E0400C0E0C083C082C0D075D000C0007580002F
:100E1400E508B40800504D900E22F8282873020EFD
:100E240062020E5E020E56020E52020E4A020E4676
:100E3400020E3E020E3AC2A28002D2A2C2A3C2A4F1
:100E44008022C2A28002D2A2D2A3C2A48016C2A2CD
:100E54008002D2A2C2A3D2A4800AC2A28002D2A2D9
:100E6400D2A3D2A4E50825E02409F808E6F5800514
:100E740008D3E5089407748094804003750800D073
:0A0E840000D0D0D082D083D0E0323D
:100F4500D3EF9400EE940040147D6E7C00ED1D708F
:0D0F5500011CED4C70F7EF1F70E61E80E3ED
:010F6200226C
:100F1600C2AFC2B77F467E00EF1FAC0670011E4C03
:100F260070F6D2B7FEFFD2AF30B7110FBF00010E79
:0E0F3600D3EF9488EE941340EF7F00227F01EA
:010F4400228A
:0C0E8E00120F167F017E00120F457FCC72
:100E9A00C2AFE4FBFAC2B7051BE51B7002051AEFE5
:100EAA001392B7751A00751B06E51B151BAC1A7051
:100EBA0002151A4C70F3D2B7EFC313FF0BBB000134
:090ECA000AEB64084A70CED2AFB5
:010ED30022FC
:100ED400C2AF7D087C00C2B70FBF0000D2B70FBFFE
:100EE40000000FBF0000A2B7E433C433333354808F
:100EF400FBE9C3134BF97E007F04EF1FAA067001C0
:100F04001E4A70F6ED1D70011CED4C70C9D2AFAFD6
:010F140001DB
:010F150022B9
:080FBA00120E8E7F44020E9A14
:080FC200120E8E7FBE020E9A92
:100F6300E4FFFE120FBA120FC2120ED48F19120E23
:060F7300D4EFFEE519FFBA
:010F79002255
:10080000020AA8E86480F8E933E83360110460F074
:10081000ED33EC337009E8FCE9FDEAFEEBFF22045E
:1008200060DED3EB9FEA9EE99DE8C2E78CF0C2F759
:1008300095F0400CE8CCF8E9CDF9EACEFAEBCFFB25
:10084000120A7385D0F05804700320D5B3E8047001
:10085000075002B2D5020AB292D5EC0460F7E4CC9C
:10086000C0E0C398F8603B94186008400DD0E0FBEE
:10087000020A8AE4FBFAC9FC8028E830E406E4C9ED
:10088000FBE4CAFCE830E305E4C9CACBFCE8540742
:100890006010F8C3E913F9EA13FAEB13FBEC13FC4D
:1008A000D8F130F52FC3E49CFCEF9BFFEE9AFEEDF0
:1008B00099FDD0E0FBEF4E4D4C701222DB03020A93
:1008C000AFEC2CFCEF33FFEE33FEED33FDED30E704
:1008D000EB020A8AEF2BFFEE3AFEED39FDD0E0FB8A
:1008E00050130BBB0003020AB2ED13FDEE13FEEF33
:0808F00013FFEC13FC020A8A5D
:1008F800EC4D6011E8497017ED33EC3304600DE4FA
:10090800FCFFFEFD22E933E8330470F8020AA8125E
:100918000A7358046009E4CC24815006285009025F
:100928000AB2284003020AAFC0E0EB4A7044B9801B
:1009380006D0E0FB020A9EEF4E701CBD8008EBFF5C
:10094800EAFEE9FD80EBE98DF0A4FEE5F00209E19D
:10095800E9CDF9EAFEEBFFEF89F0A4FCE5F0CE89DA
:10096800F0A42EFFE435F0CD89F0A42DFEE435F097
:100978008067EF4E7005BD80D780C3EF8BF0A4ACC5
:10098800F0EE8BF0A42CFCE435F0F8EF8AF0A42C00
:10099800E5F038FCE433CB8DF0A42CFCE5F03BF813
:1009A800EE8AF0A42CFCE5F038F8E433CF89F0A403
:1009B8002CFCE5F038CF3400CE89F0A42FFFE5F009
:1009C8003EFEE433C98DF0A42EFEE5F039CD8AF061
:1009D800A42FFFE5F03EFEE43DFD33D0E0FB5007D9
:1009E8000BBB000F020AB2EC2CFCEF33FFEE33FE18
:0609F800ED33FD020A8A46
:1009FE0075F020800E75F010800575F0087D007E74
:100A0E00007F003392D530D503120BE9EC33401042
:100A1E00EF33FFEE33FEED33FDEC33FCD5F0ED227C
:0E0A2E00E5F0247EA2D513CC92E7CDCEFF22B8
:100A3C00EDD2E7CD33EC3392D524814006E4FFFEB2
:100A4C00FDFC22FCE4CFCECDCC24E0501174FF8011
:100A5C00EDC3CC13CCCD13CDCE13CECF13CF0470AE
:070A6C00F030D5DE020BE9BA
:100A7300E9D2E7C933E833F892D5EDD2E7CD33ECC9
:070A830033FC5002B2D52242
:100A8A00EC30E7100FBF000C0EBE00080DBD0004CD
:100A9A000BEB6014A2D5EB13FCED92E7FD2274FF79
:100AAA00FCFDFEFF22E480F8A2D574FF13FC7D80D2
:030ABA00E480EFE6
:100D8400020FAFE493A3F8E493A34003F68001F2C7
:100D940008DFF48029E493A3F85407240CC8C33370
:100DA400C4540F4420C8834004F456800146F6DF3F
:100DB400E4800B0102040810204080900F7AE47E46
:100DC400019360BCA3FF543F30E509541FFEE49334
:100DD400A360010ECF54C025E060A840B8E493A3FB
:100DE400FAE493A3F8E493A3C8C582C8CAC583CA26
:100DF400F0A3C8C582C8CAC583CADFE9DEE780BEDE
:010F8F000061
:100ABD00E709F608DFFA8046E709F208DFFA803E1B
:100ACD0088828C83E709F0A3DFFA8032E309F60808
:100ADD00DFFA8078E309F208DFFA807088828C8370
:100AED00E309F0A3DFFA806489828A83E0A3F60824
:100AFD00DFFA805889828A83E0A3F208DFFA804CFE
:100B0D0080D280FA80C680D4806980F280338010D4
:100B1D0080A680EA809A80A880DA80E280CA80333D
:100B2D0089828A83ECFAE493A3C8C582C8CCC583B5
:100B3D00CCF0A3C8C582C8CCC583CCDFE9DEE78085
:100B4D000D89828A83E493A3F608DFF9ECFAA9F004
:100B5D00EDFB2289828A83ECFAE0A3C8C582C8CC5A
:100B6D00C583CCF0A3C8C582C8CCC583CCDFEADE73
:100B7D00E880DB89828A83E493A3F208DFF980CCD5
:100B8D0088F0EF60010E4E60C388F0ED2402B404CE
:100B9D000050B9F582EB2402B4040050AF23234575
:060BAD008223900B0D7382
:100BB300C2D5EC30E709B2D5E4C39DFDE49CFCEE5D
:100BC30030E715B2D5E4C39FFFE49EFE120BF7C3D3
:100BD300E49DFDE49CFC8003120BF730D507C3E4CE
:060BE3009FFFE49EFE22CC
:0E0BE900C3E49FFFE49EFEE49DFDE49CFC221D
:100BF700BC000BBE0029EF8DF084FFADF022E4CCE2
:100C0700F875F008EF2FFFEE33FEEC33FCEE9DECAA
:100C1700984005FCEE9DFE0FD5F0E9E4CEFD22EDF0
:100C2700F8F5F0EE8420D21CFEADF075F008EF2F3A
:100C3700FFED33FD4007985006D5F0F222C398FD2B
:050C47000FD5F0EA22C8
:00000001FF
