:030000000200CD2E
:0C00CD00787FE4F6D8FD7581080201146C
:10000E0018301C1020401C10181020101C10184006
:10001E001C2020201C2018202080FF20301C1018AF
:10002E002015201C202020264020202B202620209A
:10003E00203080FF20201C101810202026202B207E
:10004E0030202B4020201C101810202026202B2082
:10005E0030202B4020301C10182015201C20202072
:10006E00264020202B2026202020308020301C10DF
:10007E0020101C10202026202B2030202B40201555
:10008E001F0520101C10202026202B2030202B4056
:10009E0020301C10182015201C2020202640202047
:1000AE002B2026202020303020301C1018401C2001
:0F00BE00202026401360182015401340188000A2
:03000300010800F1
:1001B50053890F438901758CD8758AEF75A88222FA
:03000B000201C52A
:0901C500758CD8758AEF1508321B
:1001A300EF75F003A4FFAEF0EF1F70011E144E7045
:0101B300F754
:0101B4002228
:03000700DFFE22F7
:10015900E4FD1201B5ED90000E93FEFB7A007008E4
:10016900FD7FE812000780EDEBF44A700A0D7F6409
:10017900120007C28C80DEAF050DEF90000E93FCD4
:10018900AF050DEF93F508D28CE5086009B2A5AF6C
:0A019900041201A380F3C28C80BBA6
:1000D900020159E493A3F8E493A34003F68001F2E3
:1000E90008DFF48029E493A3F85407240CC8C33328
:1000F900C4540F4420C8834004F456800146F6DFF7
:10010900E4800B0102040810204080900003E47E83
:10011900019360BCA3FF543F30E509541FFEE493EB
:10012900A360010ECF54C025E060A840B8E493A3B2
:10013900FAE493A3F8E493A3C8C582C8CAC583CADD
:10014900F0A3C8C582C8CAC583CADFE9DEE780BE95
:0100060000F9
:00000001FF
