:03000000020144B6
:0C014400787FE4F6D8FD75810802000306
:0C004900C2A5C2A78980D2A77F057E0057
:10005500D3EF9400EE940040257DC7EDD394007452
:1000650080948040127C01ECD3940074809480408D
:0E007500031C80F31D80E4EF1F70D51E80D2A7
:01008300225A
:1000B000E4FBC2A6D2A5D2A77F01FE120055E580BF
:1000C0005480648070100BEBD394647480948040EF
:0A00D000EDC2A77F0022C2A77F0146
:0100DA002203
:0200DB00A90773
:1000DD00E4FA1200B0EF70127F01FE1200550AEA29
:1000ED00D394647480948040E922C2A6120049C260
:0100FD00A75B
:0100FE0022DF
:0200FF00A9074F
:10010100E4FA1200B0EF70127F01FE1200550AEA04
:10011100D394647480948040E922D2A6120049C22B
:01012100A736
:0101220022BA
:10012300D2B2D2B47F301200DB7F0C1200DB7F012E
:030133000200DBEC
:10008400EFFB7A0070047F80801CEB64014A7004EB
:100094007F908012EB64024A70047F888008EB64CE
:0C00A400034A70027F98EF2DFF0200DB82
:0E0136004E474F2051554F4320485559210048
:10000300E4F508120123E4FDFF802FE50890013693
:1000130093FF602B1200FF0508E50864107006FDCE
:100023007F01120084E50864207006FD7F02120040
:1000330084E508643070D4FD7F0312008480CC7F94
:06004300011200DB80C089
:00000001FF
