:0A00E9003F065B4F666D7D077F6FD9
:0C00B10012005D9000EBE493F5807F03EB
:1000BD00E4FDFCC3ED9FEC9E5015E4FBFA0BBB0079
:0F00CD00010AEB647B4A70F50DBD00010C80E465
:0100DC002201
:10005D00EE7050EFB40800504A90006DF8282873E8
:10006D0002008502008902008D02009102009502B6
:10007D00009C0200A30200AAC2A4800EC2A480119B
:10008D00C2A48014C2A48017D2A4C2A3C2A222D239
:10009D00A4C2A3D2A222D2A4D2A3C2A222D2A4D2FB
:0400AD00A3D2A22216
:10000300E4FFFE12005D9000E91200B77F011200C9
:10001300B11F12005D9000E9E493F5800F1200BD5B
:1000230012005D9000F2E493F5801200BD0F120000
:100033005D9000ECE493F5801F1200BD7F05120074
:100043005D9000EA1200B77F0612005D9000EA128D
:0A00530000B77F071200B10200039E
:030000000200DD1E
:0C00DD00787FE4F6D8FD7581070200036F
:00000001FF
