:0F08D40076793F38003F065B4F666D7D077F6F7B
:0C08A8001208009008DBE493F5807F0349
:1008B400E4FDFCC3ED9FEC9E5015E4FBFA0BBB007A
:0F08C400010AEB647B4A70F50DBD00010C80E466
:0108D3002202
:10080000EE7050EFB40800504A900810F828287392
:1008100002082802082C02083002083402083802B4
:10082000083F02084602084DC2A4800EC2A48011EF
:10083000C2A48014C2A48017D2A4C2A3C2A222D28E
:10084000A4C2A3D2A222D2A4D2A3C2A222D2A4D250
:04085000A3D2A2226B
:10085400E4FFFE1208A87F011208A81F12080090E6
:1008640008D9E493F5800F1208B41208009008E246
:10087400E493F5801208B40F1208009008DCE493A6
:10088400F5801F1208B47F051208009008DA1208D8
:10089400AE7F061208009008DA1208AE7F0712082D
:0408A400A80208544A
:030000000208E310
:0C08E300787FE4F6D8FD75810702085408
:00000001FF
