:030000000208E40F
:0C08E400787FE4F6D8FD75810D0208CE87
:0A08F0003F065B4F666D7D077F6FCA
:0A08A400F583E493F5807FF47E01F4
:1008AE00E4FDFCC3ED9FEC9E5015E4FBFA0BBB0080
:0F08BE00010AEB647B4A70F50DBD00010C80E46C
:0108CD002208
:10080000E4F5807FC8FE1208AE900000E58025E088
:100810004401F5807FC87E001208AEA3E58264081B
:10082000458370E8E4F580F583F582E580C31344E1
:1008300080F5807FC87E001208AEA3E5826408457B
:030840008370E8DA
:010843002292
:1008440075080075090A74EF2509F58274083508DE
:100854001208A4E509150970021508D3E5099400E6
:10086400E5086480948050DEE4F5807FC8FE0208C9
:01087400AED5
:10087500E4F508F50974F12509F5827408350812BF
:1008850008A40509E50970020508C3940AE508648A
:0F08950080948040E0E4F5807FF47E010208AE9D
:1008CE0020B10812084420B1F780FB20B0F21208C4
:0608DE007520B0EC80FB68
:00000001FF
