:0300000002010BEF
:0C010B00787FE4F6D8FD75810B0200033C
:1000FB00F1F3F2F6F4FCF8F9F9F8FCF4F6F2F3F19B
:10009C00E4F50BC3E50B940874809480502EAF08E4
:1000AC007E00EF6401700AE50B9000FB93541FF582
:1000BC0090EF64024E700AE50B90010393541FF508
:0C00CC0090AF097E001200DD050B80C71C
:0100D8002205
:0400D9007F017E0025
:1000DD00EF1FAA0670011E4A6013E4FCFDC3ED94E8
:0D00ED0050EC940050EA0DBD00010C80F0B5
:0100FA0022E3
:1000030075091E20B0211200D920B003750801C361
:10001300E50A94C874809480500A20B0071200D96E
:10002300050A80EBE4F50A20B1211200D920B103BF
:10003300750802C3E50A94C874809480500A20B1FD
:10004300071200D9050A80EBE4F50A20B221120059
:10005300D920B20375090DC3E50A94C8748094804E
:10006300500A20B2071200D9050A80EBE4F50A20F2
:10007300B3211200D920B303750928C3E50A94C834
:1000830074809480500A20B3071200D9050A80EBCC
:09009300E4F50A12009C020006CB
:00000001FF
