:03001600010800DE
:10000300438910758DFF758BFFD2ABD2AFD28E753E
:03001300080122BF
:03001B0002010AD5
:10010A00C0E0E50864017016758DFF758BFF050E5A
:10011A00E50E7002050D050CE50C7002050BD0E02A
:01012A0032A2
:1000AA00120003D3E50C9464E50B9400401BE4F5BD
:1000BA000BF50C300008050AE50A70020509200054
:1000CA0008E50A150A70021509E50AB4E807E50900
:1000DA00B40302C200E50A45097002D200D3E50E54
:1000EA0094E8E50D94034005E4F50DF50EC3E50E1D
:1000FA00950AE50D95095004D2A180A7C2A180A353
:0300000002001EDD
:0C001E00787FE4F6D8FD758120020065B3
:10002A000200AAE493A3F8E493A34003F68001F242
:10003A0008DFF48029E493A3F85407240CC8C333D7
:10004A00C4540F4420C8834004F456800146F6DFA6
:10005A00E4800B0102040810204080900016E47E20
:10006A00019360BCA3FF543F30E509541FFEE4939B
:10007A00A360010ECF54C025E060A840B8E493A362
:10008A00FAE493A3F8E493A3C8C582C8CAC583CA8D
:10009A00F0A3C8C582C8CAC583CADFE9DEE780BE45
:0100190000E6
:00000001FF
