:0300000002059264
:0C059200787FE4F6D8FD7581190205D9C8
:0507CF00000000000025
:0807B6000614C9E3CACFB6C85E
:10075D0012078C1207217F8812079E7F431207AA6A
:08076D0012077512044F80F819
:04044F008E088F097B
:10045300780B7C007D007BFF7A0779CF7E007F05D8
:10046300120390C3E5086480948050227F801207B2
:100473009E75992D3099FDC2997F2D1207AAE50922
:100483001509700215086309FF6308FF80127F8056
:1004930012079E7F2B1207AA75992B3099FDC299DB
:1004A300AC08AD09EC1202068F138E128D118C105D
:1004B300E4FFFE7DC87C40AB13AA12A911A8101259
:1004C30000FBE4FBFAF9783F12000A12023F8E08A0
:1004D3008F09AE08AF097C277D101203B68F0BAED0
:1004E30008AF097C277D101203B67E037FE8CFCDCA
:1004F300CFCECCCE1203B68F0CAE08AF097C037DF2
:10050300E81203B67E007F64CFCDCFCECCCE1203EC
:10051300B68F0DAE08AF097C007D641203B67E0072
:100523007F0ACFCDCFCECCCE1203B68F0EAE08AF9F
:10053300097C007D0A1203B68D0FE4F50AC3E50AB0
:100543009405748094805027E50A2482FF12079E45
:10055300740B250AF8E62430FF1207AA740B250A48
:10056300F8E62430F5993099FDC299050A80CEE466
:10057300F50AC3E50A940674809480501174142517
:0E0583000AF8E6F5993099FDC299050A80E460
:010591002247
:10078C00759850758920758780758DF3758BF3D2AC
:02079C008E22AB
:10061E00C2A58B807F017E00120647D2A77F057E82
:10062E0000120647C2A7EBC454F0F5807F017E008E
:09063E00120647D2A77F057E00D9
:10064700D3EF9400EE940040257DC7EDD39400745A
:1006570080948040127C01ECD39400748094804095
:0E066700031C80F31D80E4EF1F70D51E80D2AF
:010675002262
:0C079E00AB07C2A7C2A612061EC2A7220B
:0C07AA00AB07C2A7D2A612061EC2A722EF
:100721007F3212079E7F2812079E7F0C12079E7F41
:0E0731000612079E7F0112079E7F8002079E20
:10073F00D3EF9400EE940040147D6E7C00ED1D709D
:0D074F00011CED4C70F7EF1F70E61E80E3FB
:01075C00227A
:1006F600C2B77F467E00EF1FAC0670011E4C70F637
:10070600D2B7FEFF30B7110FBF00010ED3EF9488AA
:0A071600EE941340EF7F00227F01F4
:0107200022B6
:0C0676001206F67F017E0012073F7FCCC9
:10068200E4FBFAC2B7050AE50A70020509EF139204
:10069200B7750900750A06E50A150AAC0970021554
:1006A200094C70F3D2B7EFC313FF0BBB00010AEB87
:0506B20064084A70CE4F
:0106B7002220
:1006B8007D087C00C2B70FBF0000D2B70FBF000093
:1006C8000FBF0000A2B7E433C43333335480FBE9CF
:1006D800C3134BF97E007F04EF1FAA0670011E4A60
:0D06E80070F6ED1D70011CED4C70C9AF01E6
:0106F50022E2
:0807BF001206767F4402068257
:0807C7001206767FBE020682D5
:10077500E4FFFE1207BF1207C71206B88F0812065C
:06078500B8EFFEE508FFDD
:01078B00224B
:100003000202ABE86480F8E933E83360110460F07E
:10001300ED33EC337009E8FCE9FDEAFEEBFF220463
:1000230060DED3EB9FEA9EE99DE8C2E78CF0C2F75E
:1000330095F0400CE8CCF8E9CDF9EACEFAEBCFFB2A
:1000430012027685D0F05804700320D5B3E804700B
:10005300075002B2D50202B592D5EC0460F7E4CCA6
:10006300C0E0C398F8603B94186008400DD0E0FBF3
:1000730002028DE4FBFAC9FC8028E830E406E4C9F7
:10008300FBE4CAFCE830E305E4C9CACBFCE8540747
:100093006010F8C3E913F9EA13FAEB13FBEC13FC52
:1000A300D8F130F52FC3E49CFCEF9BFFEE9AFEEDF5
:1000B30099FDD0E0FBEF4E4D4C701222DB030202A0
:1000C300B2EC2CFCEF33FFEE33FEED33FDED30E706
:1000D300EB02028DEF2BFFEE3AFEED39FDD0E0FB94
:1000E30050130BBB00030202B5ED13FDEE13FEEF3D
:0800F30013FFEC13FC02028D67
:1000FB00EC4D6011E8497017ED33EC3304600DE4FF
:10010B00FCFFFEFD22E933E8330470F80202AB1268
:10011B00027658046009E4CC248150062850090269
:10012B0002B52840030202B2C0E0EB4A7044B9802A
:10013B0006D0E0FB0202A1EF4E701CBD8008EBFF66
:10014B00EAFEE9FD80EBE98DF0A4FEE5F00201E4A7
:10015B00E9CDF9EAFEEBFFEF89F0A4FCE5F0CE89DF
:10016B00F0A42EFFE435F0CD89F0A42DFEE435F09C
:10017B008067EF4E7005BD80D780C3EF8BF0A4ACCA
:10018B00F0EE8BF0A42CFCE435F0F8EF8AF0A42C05
:10019B00E5F038FCE433CB8DF0A42CFCE5F03BF818
:1001AB00EE8AF0A42CFCE5F038F8E433CF89F0A408
:1001BB002CFCE5F038CF3400CE89F0A42FFFE5F00E
:1001CB003EFEE433C98DF0A42EFEE5F039CD8AF066
:1001DB00A42FFFE5F03EFEE43DFD33D0E0FB5007DE
:1001EB000BBB000F0202B5EC2CFCEF33FFEE33FE22
:0601FB00ED33FD02028D50
:1002010075F020800E75F010800575F0087D007E78
:10021100007F003392D530D5031203ECEC3340104C
:10022100EF33FFEE33FEED33FDEC33FCD5F0ED2281
:0E023100E5F0247EA2D513CC92E7CDCEFF22BD
:10023F00EDD2E7CD33EC3392D524814006E4FFFEB7
:10024F00FDFC22FCE4CFCECDCC24E0501174FF8016
:10025F00EDC3CC13CCCD13CDCE13CECF13CF0470B3
:07026F00F030D5DE0203ECC4
:10027600E9D2E7C933E833F892D5EDD2E7CD33ECCE
:0702860033FC5002B2D52247
:10028D00EC30E7100FBF000C0EBE00080DBD0004D2
:10029D000BEB6014A2D5EB13FCED92E7FD2274FF7E
:1002AD00FCFDFEFF22E480F8A2D574FF13FC7D80D7
:0302BD00E480EFEB
:10059E0002075DE493A3F8E493A34003F68001F20F
:1005AE0008DFF48029E493A3F85407240CC8C3335E
:1005BE00C4540F4420C8834004F456800146F6DF2D
:1005CE00E4800B01020408102040809007B6E47E00
:1005DE00019360BCA3FF543F30E509541FFEE49322
:1005EE00A360010ECF54C025E060A840B8E493A3E9
:1005FE00FAE493A3F8E493A3C8C582C8CAC583CA14
:10060E00F0A3C8C582C8CAC583CADFE9DEE780BECB
:0107BE00003A
:1002C000E709F608DFFA8046E709F208DFFA803E20
:1002D00088828C83E709F0A3DFFA8032E309F6080D
:1002E000DFFA8078E309F208DFFA807088828C8375
:1002F000E309F0A3DFFA806489828A83E0A3F60829
:10030000DFFA805889828A83E0A3F208DFFA804C02
:1003100080D280FA80C680D4806980F280338010D9
:1003200080A680EA809A80A880DA80E280CA803342
:1003300089828A83ECFAE493A3C8C582C8CCC583BA
:10034000CCF0A3C8C582C8CCC583CCDFE9DEE7808A
:100350000D89828A83E493A3F608DFF9ECFAA9F009
:10036000EDFB2289828A83ECFAE0A3C8C582C8CC5F
:10037000C583CCF0A3C8C582C8CCC583CCDFEADE78
:10038000E880DB89828A83E493A3F208DFF980CCDA
:1003900088F0EF60010E4E60C388F0ED2402B404D3
:1003A0000050B9F582EB2402B4040050AF2323457A
:0603B0008223900310738C
:1003B600C2D5EC30E709B2D5E4C39DFDE49CFCEE62
:1003C60030E715B2D5E4C39FFFE49EFE1203FAC3DD
:1003D600E49DFDE49CFC80031203FA30D507C3E4D8
:0603E6009FFFE49EFE22D1
:0E03EC00C3E49FFFE49EFEE49DFDE49CFC2222
:1003FA00BC000BBE0029EF8DF084FFADF022E4CCE7
:10040A00F875F008EF2FFFEE33FEEC33FCEE9DECAF
:10041A00984005FCEE9DFE0FD5F0E9E4CEFD22EDF5
:10042A00F8F5F0EE8420D21CFEADF075F008EF2F3F
:10043A00FFED33FD4007985006D5F0F222C398FD30
:05044A000FD5F0EA22CD
:00000001FF
