:030000000212C821
:0C12C800787FE4F6D8FD7581430212BA6D
:101173004D6F64756C653A20004E686170206D6F29
:10118300646544616E6720636861794F757420728A
:04119300616E6765BD
:0E12BA0012126612121A120F5512085C80FBF7
:10001E004D6F64756C653A20004E686170206D6F8F
:10002E00646544616E6720636861794F75742072F0
:10003E00616E676500000000000000000000000017
:10004E0000000000000000000000000000000000A2
:10005E00000000000000000000000070180000000A
:10006E00000000000000000000008FFFFFC4000031
:10007E0000000000000000000013FFFFFFFF9000D3
:10008E00000000000000000000FFFFFFFFFFFF0068
:10009E000000000000000000033FFFFFFFFFF920FB
:1000AE0000000000000000001F3FFFFFFFFFF9E00F
:1000BE0000000000000000001E7FFFFFFFFFF9F8A8
:1000CE0000000000000000001E7FFFFFFFFFFDF09C
:1000DE0000000000000000007E7FFFFFFFFFFCF02D
:1000EE0000000000000000003EFFFFFFFFFFFCFCD1
:1000FE0000000000000000003CE1FFFFFFFFC4F81D
:10010E0000000000000000007CE1FFFFFFFFC6F8CA
:10011E000000000000000000FCC0C90C1030E678A2
:10012E0000000000000000007CC0C0389010667C0B
:10013E0000000000000000007DC8C611011C227ED8
:10014E0000000000000000007980C7003110227C02
:10015E00000000000000000079804FC0F103237CF6
:10016E000000000000000000F91C04080100237CC0
:10017E000000000000000000F93C4E3E3199B33CF7
:10018E000000000000000001F9FFFFFFFFFFFF3C31
:10019E000000000000000001F9FFFFFFFFFFFF3C21
:1001AE000000000000000001F9FFFFFFFFFFFF3C11
:1001BE000000000000000001F9FFFFFFFFFFFF3C01
:1001CE000000000000000001F9FFFFF87FFFFF3C78
:1001DE000000000000000000F9FFFF8007FFFF3C59
:1001EE000000000000000000F9F0001B3000003C91
:1001FE00000000000000000079C000C1044000FCB7
:10020E000000000000000000799FF908623FFFFE29
:10021E000000000000000000793FF239793FFFFE38
:10022E000000000000000000793FE719719FFFFCFD
:10023E000000000000000000FD9FE441464F807862
:10024E0000000000000000003CE00913184E3E784C
:10025E0000000000000000003CFFC98C6300FE7C23
:10026E0000000000000000007CFFC9E9402FFEF0F6
:10027E0000000000000000001EFFC988470FFCF0C0
:10028E0000000000000000001E7FC910934FFCF01C
:10029E0000000000000000000E7FC849404FF9E04A
:1002AE0000000000000000000F3F253C729FF9E0A7
:1002BE000000000000000000073C727C7D9FFBC028
:1002CE0000000000000000000791F33C793FF3802E
:1002DE00000000000000000003878C88467FF78036
:1002EE00000000000000000003DC3E6118FFE70084
:1002FE00000000000000000001E1FF0783FFCE00B8
:10030E00000000000000000000E7FFE01FFFDE001D
:10031E0000000000000000000073FFFFFFFF9C00C4
:10032E0000000000000000000039FFFFFFFF380052
:10033E000000000000000000001DFFFFFFFE700027
:10034E000000000000000000000EFFFFFFFCE000B8
:10035E00000000000000000000077FFFFFF9C00052
:10036E0000000000000000000003BFFFFFF380004C
:10037E0000000000000000000001CFFFFFE60000BB
:10038E000000000000000000000067FFFFCC00002E
:10039E000000000000000000000033FFFF380000E6
:1003AE00000000000000000000001CFFFE600000C6
:1003BE0000000000000000000000067FFDC00000ED
:1003CE0000000000000000000000019FF30000008C
:1003DE000000000000000000000000CFCC00000074
:1003EE0000000000000000000000007398000000F4
:1003FE000000000000000000000000186000000077
:10040E00000000000000000000000002800000005C
:10041E0000000000000000000000000000000000CE
:10042E0000000000000000000000000000000000BE
:10043E00000000003F065B4F666D7D077F6FF1F396
:0E044E00F2F6F4FCF8F9F9F8FCF4F6F2F3F12A
:10126600E4F510F511F508F509D288D2A8D2AFD267
:02127600B222A2
:0411FC007F017E00F1
:10120000EF1FAA0670011E4A600FE4FDEDC3940DA6
:091210007480948050EA0D80F313
:0112190022B2
:030003000209B23D
:1009B200C0E0C083C082C0D075D000C000C002C0F9
:0709C20004C005C006C007D8
:1009C900750A007F467E0012120020B203020AAEA9
:1009D9009003E820B218D3E5829400E5839400409F
:1009E9000D1211FCE582158270E9158380E520B2AC
:1009F90003020AAE9001F430B218D3E5829400E5FF
:100A0900839400400D1211FCE582158270E915836B
:100A190080E5E4FCECC39404748094804003020AEA
:100A2900AE753900C3E5399408748094805072908A
:100A3900003C20B218D3E5829400E5839400400D70
:100A49001211FCE582158270E9158380E59001F4A5
:100A590030B227D3E5829400E5839400401C12113B
:100A6900FC050AE582158270021583D3E50A941EF6
:100A79007480948040DAD2A8802B74122CF8C000BC
:100A8900E6C313D000F6C3E50A9408748094804045
:100A99000874122CF8E64480F6750A000539020A32
:050AA9002D0C020A1DE6
:100AAE00D007D006D005D004D002D000D0D0D0824E
:050ABE00D083D0E032FE
:101278008E378F387F891212D4E5382430FF021256
:01128800E085
:101289008E378F387F8A1212D4E5382430FF021244
:01129900E074
:100F0D00E4F510F511F514F508F5097F6BFE1212D5
:100F1D00897F6B7E001212787FC01212D4E4F535F2
:100F2D00F53674272536F58274003535F583E4934F
:100F3D00FF1212E00536E53670020535C39409E55A
:070F4D00356480948040DB55
:010F5400227A
:040EBB00AF1EAE1D9B
:100EBF008E358F36E5114510701FFC7D0A121161BA
:100ECF00E5092FF509E5083EF508AF36AE351212E4
:100EDF00787510007511018021E5116401451070BE
:100EEF001CE5362509F509E5353508F508AF36AEA9
:0E0EFF0035121289751000751103E4F51422E6
:100C8900EE7062EF14B40F00505B900CA175F00385
:100C9900A4C58325F0C58373020CCE020CF1020CA6
:100CA900F1020CF1020CF1020CF1020CF1020CDF61
:100CB900020CE2020CF1020CE5020CE8020CF10252
:100CC9000CF1020CEBE51664047008E51764067074
:100CD90002C2AB020D54020DB2020BF3020CF20276
:090CE9000FD5021253120F0D2267
:100F55007F801212D4E4F534C3E534940974809487
:100F650080500EE53490001E93FF1212E005348088
:100F7500E77FC01212D4E4F534C3E53494097480D4
:100F85009480500EE53490002793FF1212E005344B
:020F950080E7F3
:010F97002237
:10085C00E514C4540FF516E514540FF517E516708E
:10086C000DE517640D7007F51DF51E120EBBE51690
:10087C00700EE517640C7008F51D751E01120EBB89
:10088C00E5166401700EE51764087008F51D751EF9
:10089C0002120EBBE5166405700EE517640E7008A7
:1008AC00F51D751E03120EBBE516700EE5176408D8
:1008BC007008F51D751E04120EBBE5166401700E52
:1008CC00E517640C7008F51D751E05120EBBE516B8
:1008DC006405700EE517640A7008F51D751E061286
:1008EC000EBBE5166404700EE51764027008F51D66
:1008FC00751E07120EBBE5166405700EE517640233
:10090C007008F51D751E08120EBBE5166404700EFA
:10091C00E517640A7008F51D751E09120EBBE51665
:10092C0064047042E5176404703CC3E5099414E553
:10093C000894005009AF09AE08120C8980287FC0BA
:10094C001212D4E4F534C3E53494097480948050C5
:10095C000EE53490003993FF1212E0053480E77FE6
:10096C00587E1B121200E5166404702AE517640603
:10097C0070247FC01212D4E4F534C3E534940974A6
:10098C00809480500EE53490002793FF1212E005FE
:10099C003480E7E4F514E51664047009E517640582
:0509AC007003120F0DA5
:0109B1002223
:100E0F00C2A58B807F017E00120E38D2A77F057E90
:100E1F0000120E38C2A7EBC454F0F5807F017E009C
:090E2F00120E38D2A77F057E00E7
:100E3800D3EF9400EE940040257DC7EDD394007461
:100E480080948040127C01ECD3940074809480409C
:0E0E5800031C80F31D80E4EF1F70D51E80D2B6
:010E66002269
:0C12D400AB07C2A7C2A6120E0FC2A722D1
:0C12E000AB07C2A7D2A6120E0FC2A722B5
:10121A007F321212D47F281212D47F0C1212D47F7A
:0E122A00061212D47F011212D47F800212D459
:10129A00438910758DFF758BFFD2ABD2AFD28E22E8
:03001B0002123896
:10123800C0E0758DFF758BFF0533E533700205320D
:0B1248000531E53170020530D0E032C6
:100D540012129AD3E5319464E5309400401BE4F513
:100D640030F531300108052FE52F7002052E2001E2
:100D740008E52F152F7002152EE52FB4E807E52E90
:100D8400B40302C201E52F452E7002D201D3E5332C
:100D940094E8E53294034005E4F532F533C3E533D2
:0E0DA400952FE532952E5003D2A122C2A12236
:10045C000000000000000000000000000000000090
:10046C000000000000000000000000000000000080
:10047C0000000000000000701800000000000000E8
:10048C000000000000008FFFFFC40000000000000F
:10049C00000000000013FFFFFFFF900000000000B1
:1004AC000000000000FFFFFFFFFFFF000000000046
:1004BC0000000000033FFFFFFFFFF92000000000D9
:1004CC00000000001F3FFFFFFFFFF9E000000000ED
:1004DC00000000001E7FFFFFFFFFF9F80000000086
:1004EC00000000001E7FFFFFFFFFFDF0000000007A
:1004FC00000000007E7FFFFFFFFFFCF0000000000B
:10050C00000000003EFFFFFFFFFFFCFC00000000AE
:10051C00000000003CE1FFFFFFFFC4F800000000FA
:10052C00000000007CE1FFFFFFFFC6F800000000A8
:10053C0000000000FCC0C90C1030E6780000000080
:10054C00000000007CC0C0389010667C00000000E9
:10055C00000000007DC8C611011C227E00000000B6
:10056C00000000007980C7003110227C00000000E0
:10057C000000000079804FC0F103237C00000000D4
:10058C0000000000F91C04080100237C000000009E
:10059C0000000000F93C4E3E3199B33C00000000D5
:1005AC0000000001F9FFFFFFFFFFFF3C000000000F
:1005BC0000000001F9FFFFFFFFFFFF3C00000000FF
:1005CC0000000001F9FFFFFFFFFFFF3C00000000EF
:1005DC0000000001F9FFFFFFFFFFFF3C00000000DF
:1005EC0000000001F9FFFFF87FFFFF3C0000000056
:1005FC0000000000F9FFFF8007FFFF3C0000000037
:10060C0000000000F9F0001B3000003C000000006E
:10061C000000000079C000C1044000FC0000000094
:10062C0000000000799FF908623FFFFE0000000007
:10063C0000000000793FF239793FFFFE0000000016
:10064C0000000000793FE719719FFFFC00000000DB
:10065C0000000000FD9FE441464F80780000000040
:10066C00000000003CE00913184E3E78000000002A
:10067C00000000003CFFC98C6300FE7C0000000001
:10068C00000000007CFFC9E9402FFEF000000000D4
:10069C00000000001EFFC988470FFCF0000000009E
:1006AC00000000001E7FC910934FFCF000000000FA
:1006BC00000000000E7FC849404FF9E00000000028
:1006CC00000000000F3F253C729FF9E00000000085
:1006DC0000000000073C727C7D9FFBC00000000006
:1006EC00000000000791F33C793FF380000000000C
:1006FC000000000003878C88467FF7800000000014
:10070C000000000003DC3E6118FFE7000000000061
:10071C000000000001E1FF0783FFCE000000000095
:10072C000000000000E7FFE01FFFDE0000000000FB
:10073C00000000000073FFFFFFFF9C0000000000A2
:10074C00000000000039FFFFFFFF38000000000030
:10075C0000000000001DFFFFFFFE70000000000005
:10076C0000000000000EFFFFFFFCE0000000000096
:10077C000000000000077FFFFFF9C0000000000030
:10078C00000000000003BFFFFFF38000000000002A
:10079C00000000000001CFFFFFE600000000000099
:1007AC0000000000000067FFFFCC0000000000000C
:1007BC0000000000000033FFFF38000000000000C4
:1007CC000000000000001CFFFE60000000000000A4
:1007DC00000000000000067FFDC0000000000000CB
:1007EC00000000000000019FF3000000000000006A
:1007FC0000000000000000CFCC0000000000000052
:10080C0000000000000000739800000000000000D1
:10081C000000000000000018600000000000000054
:10082C00000000000000000280000000000000003A
:10083C0000000000000000000000000000000000AC
:10084C00000000000000000000000000000000009C
:10100900D3EF9400EE940040257DC7EDD39400748E
:1010190080948040127C01ECD394007480948040C9
:0E102900031C80F31D80E4EF1F70D51E80D2E3
:011037002296
:10111D00E4FBC2A6D2A5D2A77F01FE121009E5807D
:10112D005480648070100BEBD39464748094804071
:0A113D00EDC2A77F0022C2A77F01C8
:011147002285
:02119700A907A6
:10119900E4FA12111DEF700C0AEAD3946474809476
:1011A9008040EF22C2A6C2A5C2A78980D2A7C2A742
:0111B9002213
:0A10C400AB3AAA3BA93C121148FF09
:0210CE00A90770
:1010D000E4FA12111DEF700C0AEAD3946474809440
:1010E0008040EF22D2A6C2A5C2A78980D2A7C2A7FC
:0110F00022DD
:10000600D2B2D2B47F301211977F0C1211977F01B2
:030016000211973D
:060AC3008B3A8A3B893CDE
:100AC9007F011211977F34121197E4F53DC3E53D7B
:100AD9009420748094805031E53D2480FF12119751
:100AE9007F80121197E4F53EC3E53E94107480941B
:100AF9008050121210C47401253CF53CE4353BF5D5
:100B09003B053E80E3053D80C4E4F53DC3E53D94E6
:100B190020748094805031E53D2480FF1211977F25
:100B290088121197E4F53EC3E53E941074809480D1
:100B390050121210C47401253CF53CE4353BF53BD9
:100B4900053E80E3053D80C47F361211977F300250
:020B59001197F2
:0A12EC003F065B4F666D7D077F6FC4
:0C10F100120E679012EDE493F5807F036F
:1010FD00E4FDFCC3ED9FEC9E5015E4FBFA0BBB0029
:0F110D00010AEB647B4A70F50DBD00010C80E414
:01111C0022B0
:100E6700EE7050EFB40800504A900E77F8282873B8
:100E7700020E8F020E93020E97020E9B020E9F0226
:100E87000EA6020EAD020EB4C2A4800EC2A480113B
:100E9700C2A48014C2A48017D2A4C2A3C2A222D221
:100EA700A4C2A3D2A222D2A4D2A3C2A222D2A4D2E3
:040EB700A3D2A222FE
:100DB200E4FFFE120E679012EC1210F77F01120E82
:100DC200679012EE1210F71F120E679012ECE49366
:100DD200F5800F1210FD120E679012F5E493F58064
:100DE2001210FD0F120E679012EFE493F5801F129E
:100DF20010FD7F051210F17F061210F17F07120E0F
:0D0E0200679012EEE493F5807F030210FD6F
:1012AA00F1F3F2F6F4FCF8F9F9F8FCF4F6F2F3F1DA
:100F9800E4F536C3E536940874809480502EAF4249
:100FA8007E00EF6401700AE5369012AA93541FF58B
:100FB80090EF64024E700AE5369012B293541FF512
:0C0FC80090AF437E001211BE053680C7BA
:010FD40022FA
:0411BA007F017E0033
:1011BE00EF1FAA0670011E4A6013E4FCFDC3ED94F6
:0D11CE0050EC940050EA0DBD00010C80F0C3
:0111DB0022F1
:100BF30075431E20B0211211BA20B003754201C300
:100C0300E53594C874809480500A20B0071211BA55
:100C1300053580EBE4F53520B1211211BA20B1037B
:100C2300754202C3E53594C874809480500A20B19C
:100C3300071211BA053580EBE4F53520B221121104
:100C4300BA20B20375430DC3E53594C8748094800C
:100C5300500A20B2071211BA053580EBE4F53520AE
:100C6300B3211211BA20B303754328C3E53594C8E1
:100C730074809480500A20B3071211BA053580EBB3
:060C8300E4F535020F98B4
:100B5B007FBFDFEFF7FBFDFE00003E4141413E0052
:100B6B0000000000217F01000000274545453900AA
:100B7B00000022494949360000000C14247F040070
:100B8B000000725151514E0000003E494949260068
:100B9B0000004040404F7000000036494949360084
:100BAB000000324949493E0000007F4848300000B0
:100BBB0000007F484C73000000007F49494900004A
:100BCB0000003E414162000000007F08087F0000EA
:100BDB00000000FFFF000000007F1008047F0000F2
:080BEB007C4848FF48487C00EB
:1011DC00E4FDFCC3ED9FEC9E5015E4FBFA0BBB0049
:0F11EC00010AEB64794A70F50DBD00010C80E437
:0111FB0022D1
:10103800C2B6C2B5E4FEEEC394087480948050181A
:10104800EFC4131313540124FF92B4EF25E0FFD229
:0E105800B60000C2B60E80DED2B50000C2B5F2
:011066002267
:100CF200E4F536F537E4F9E9C3940874809480503A
:100D020035E4FF121038E9900B5B93F580E53575F9
:100D1200F008A42463F582E4340BF583E58229F517
:100D220082E43583F583E493FF1210387F027E005C
:100D32001211DC0980C10537E53770020536C3940C
:100D420032E536940040AE0535E53564127002F5A1
:010D5200356B
:010D5300227D
:101096007F01EFD394007480948040217E1EEED3AE
:1010A60094007480948040127D82EDD39400748005
:0D10B600948040031D80F31E80E41F80D550
:0110C300220A
:100FD50075A0FE20B12DAFA07801EF08800103D8E0
:100FE500FDF5A0C3E5409432E53F9400501020B1D3
:100FF5000D1210960540E54070E9053F80E5E4F5E2
:041005003FF5402251
:10106700D3EF9400EE940040257D26EDD3940074D1
:1010770080948040127C82ECD394007480948040EA
:0E108700031C80F31D80E4EF1F70D51E80D285
:011095002238
:10125300E4F5A07F32FE12106775A0FF7F327E0097
:031263000210670F
:10114800BB010689828A83E0225002E722BBFE02A5
:09115800E32289828A83E49322D8
:10116100EF8DF0A4A8F0CF8CF0A428CE8DF0A42EA2
:02117100FE225C
:00000001FF
