:03000000020C6A85
:0C0C6A00787FE4F6D8FD758167020CB1BC
:101381004D6F64756C653A20004E686170206D6F19
:10139100646544616E6720636861794F757420727A
:0413A100616E6765AD
:0E1521001214BE12144C1210E012085C80FB73
:10001E004D6F64756C653A20004E686170206D6F8F
:10002E00646544616E6720636861794F75742072F0
:10003E00616E676500000000000000000000000017
:10004E0000000000000000000000000000000000A2
:10005E00000000000000000000000070180000000A
:10006E00000000000000000000008FFFFFC4000031
:10007E0000000000000000000013FFFFFFFF9000D3
:10008E00000000000000000000FFFFFFFFFFFF0068
:10009E000000000000000000033FFFFFFFFFF920FB
:1000AE0000000000000000001F3FFFFFFFFFF9E00F
:1000BE0000000000000000001E7FFFFFFFFFF9F8A8
:1000CE0000000000000000001E7FFFFFFFFFFDF09C
:1000DE0000000000000000007E7FFFFFFFFFFCF02D
:1000EE0000000000000000003EFFFFFFFFFFFCFCD1
:1000FE0000000000000000003CE1FFFFFFFFC4F81D
:10010E0000000000000000007CE1FFFFFFFFC6F8CA
:10011E000000000000000000FCC0C90C1030E678A2
:10012E0000000000000000007CC0C0389010667C0B
:10013E0000000000000000007DC8C611011C227ED8
:10014E0000000000000000007980C7003110227C02
:10015E00000000000000000079804FC0F103237CF6
:10016E000000000000000000F91C04080100237CC0
:10017E000000000000000000F93C4E3E3199B33CF7
:10018E000000000000000001F9FFFFFFFFFFFF3C31
:10019E000000000000000001F9FFFFFFFFFFFF3C21
:1001AE000000000000000001F9FFFFFFFFFFFF3C11
:1001BE000000000000000001F9FFFFFFFFFFFF3C01
:1001CE000000000000000001F9FFFFF87FFFFF3C78
:1001DE000000000000000000F9FFFF8007FFFF3C59
:1001EE000000000000000000F9F0001B3000003C91
:1001FE00000000000000000079C000C1044000FCB7
:10020E000000000000000000799FF908623FFFFE29
:10021E000000000000000000793FF239793FFFFE38
:10022E000000000000000000793FE719719FFFFCFD
:10023E000000000000000000FD9FE441464F807862
:10024E0000000000000000003CE00913184E3E784C
:10025E0000000000000000003CFFC98C6300FE7C23
:10026E0000000000000000007CFFC9E9402FFEF0F6
:10027E0000000000000000001EFFC988470FFCF0C0
:10028E0000000000000000001E7FC910934FFCF01C
:10029E0000000000000000000E7FC849404FF9E04A
:1002AE0000000000000000000F3F253C729FF9E0A7
:1002BE000000000000000000073C727C7D9FFBC028
:1002CE0000000000000000000791F33C793FF3802E
:1002DE00000000000000000003878C88467FF78036
:1002EE00000000000000000003DC3E6118FFE70084
:1002FE00000000000000000001E1FF0783FFCE00B8
:10030E00000000000000000000E7FFE01FFFDE001D
:10031E0000000000000000000073FFFFFFFF9C00C4
:10032E0000000000000000000039FFFFFFFF380052
:10033E000000000000000000001DFFFFFFFE700027
:10034E000000000000000000000EFFFFFFFCE000B8
:10035E00000000000000000000077FFFFFF9C00052
:10036E0000000000000000000003BFFFFFF380004C
:10037E0000000000000000000001CFFFFFE60000BB
:10038E000000000000000000000067FFFFCC00002E
:10039E000000000000000000000033FFFF380000E6
:1003AE00000000000000000000001CFFFE600000C6
:1003BE0000000000000000000000067FFDC00000ED
:1003CE0000000000000000000000019FF30000008C
:1003DE000000000000000000000000CFCC00000074
:1003EE0000000000000000000000007398000000F4
:1003FE000000000000000000000000186000000077
:10040E00000000000000000000000002800000005C
:10041E0000000000000000000000000000000000CE
:10042E0000000000000000000000000000000000BE
:10043E00000000003F065B4F666D7D077F6FF1F396
:0E044E00F2F6F4FCF8F9F9F8FCF4F6F2F3F12A
:10135A0011293F065B4F666D7D077F6F777C395E8B
:03136A0079710096
:1014BE00E4F53AF53BF521F522D288D2A8D2AFD287
:0214CE00B22248
:04142E007F017E00BC
:10143200EF1FAA0670011E4A600FE4FDEDC3940D72
:091442007480948050EA0D80F3DF
:01144B00227E
:030003000209935C
:10099300C0E0C083C082C0D075D000C000C002C018
:0709A30004C005C006C007F7
:1009AA007523007F467E0012143220B203020A8F9A
:1009BA009003E820B218D3E5829400E583940040BE
:1009CA000D12142EE582158270E9158380E520B296
:1009DA0003020A8F9001F430B218D3E5829400E53D
:1009EA00839400400D12142EE582158270E9158356
:1009FA0080E5E4FCECC39404748094804003020A0A
:100A0A008F756200C3E56294087480948050729076
:100A1A00003C20B218D3E5829400E5839400400D8F
:100A2A0012142EE582158270E9158380E59001F48F
:100A3A0030B227D3E5829400E5839400401C121457
:100A4A002E0523E582158270021583D3E523941EB1
:100A5A007480948040DAD2A8802B743C2CF8C000B1
:100A6A00E6C313D000F6C3E523940874809480404B
:100A7A0008743C2CF8E64480F67523000562020AE5
:050A8A000E0C0209FE44
:100A8F00D007D006D005D004D002D000D0D0D0826D
:050A9F00D083D0E0321D
:1014D0008E608F617F8912152FE5612430FF021520
:0114E0003BD0
:1014E1008E608F617F8A12152FE5612430FF02150E
:0114F1003BBF
:10109800E4F53AF53BF53EF521F5227F6BFE121497
:1010A800E17F6B7E001214D07FC012152FE4F55E2D
:1010B800F55F7427255FF5827400355EF583E49348
:1010C800FF12153B055FE55F7002055EC39409E5F5
:0710D8005E6480948040DBA0
:0110DF0022EE
:040FF800AF48AE4709
:100FFC008E5E8F5FE53B453A701FFC7D0A121348ED
:10100C00E5222FF522E5213EF521AF5FAE5E1214ED
:10101C00D0753A00753B018021E53B6401453A707F
:10102C001CE55F2522F522E55E3521F521AF5FAE8B
:0E103C005E1214E1753A00753B03E4F53E22A6
:100E3300EE7057EF14B40F005050900E4B75F00343
:100E4300A4C58325F0C58373020E78020E7B020EC0
:100E530090020E90020E90020E90020E90020E7EF1
:100E6300020E81020E90020E84020E87020E900281
:100E73000E90020E8A020E9102000E020EEF020B7A
:0E0E8300D4020DD10211600214AB121098229D
:05000600C2ABC2A922FB
:1010E0007F8012152FE4F55DC3E55D94097480944B
:1010F00080500EE55D90001E93FF12153B055D804C
:10110000E77FC012152FE4F55DC3E55D9409748097
:101110009480500EE55D90002793FF12153B055D0E
:0211200080E766
:0111220022AA
:10085C00E53EC4540FF540E53E540FF541E54070BC
:10086C000DE541640D7007F547F548120FF8E540AA
:10087C00700EE541640C7008F547754801120FF8CD
:10088C00E5406401700EE54164087008F547754851
:10089C0002120FF8E5406405700EE541640E700815
:1008AC00F547754803120FF8E540700EE5416408F2
:1008BC007008F547754804120FF8E5406401700E96
:1008CC00E541640C7008F547754805120FF8E540D2
:1008DC006405700EE541640A7008F5477548061208
:1008EC000FF8E5406404700EE54164027008F547AA
:1008FC00754807120FF8E5406405700EE541640277
:10090C007008F547754808120FF8E5406404700E3E
:10091C00E541640A7008F547754809120FF8E5407F
:10092C0064047042E5416404703CC3E5229414E510
:10093C002194005009AF22AE21120E3380287FC0C3
:10094C0012152FE4F55DC3E55D9409748094805015
:10095C000EE55D90003993FF12153B055D80E77F36
:10096C00587E1B121432E5406404700BE54164069A
:10097C007005F53E120006E54064047009E541641B
:06098C0005700312109833
:010992002242
:100F4C00C2A58B807F017E00120F75D2A77F057E14
:100F5C0000120F75C2A7EBC454F0F5807F017E0020
:090F6C00120F75D2A77F057E006B
:100F7500D3EF9400EE940040257DC7EDD394007423
:100F850080948040127C01ECD3940074809480405E
:0E0F9500031C80F31D80E4EF1F70D51E80D278
:010FA300222B
:0C152F00AB07C2A7C2A6120F4CC2A72235
:0C153B00AB07C2A7D2A6120F4CC2A72219
:10144C007F3212152F7F2812152F7F0C12152F7F2C
:0E145C000612152F7F0112152F7F8002152F0B
:1014F200438910758DFF758BFFD2ABD2AFD28E228E
:03001B0002146A62
:10146A00C0E0758DFF758BFF055CE55C7002055B5E
:0B147A00055AE55A70020559D0E03217
:100E91001214F2D3E55A9464E5599400401BE4F529
:100EA10059F55A3001080558E558700205572001D7
:100EB10008E558155870021557E558B4E807E55785
:100EC100B40302C201E55845577002D201D3E55C73
:100ED10094E8E55B94034005E4F55BF55CC3E55CF0
:0E0EE1009558E55B95575003D2A122C2A1227D
:10136D00110A3F065B4F666D7D077F6F777C395E97
:03137D0079710083
:0B127E00740A2DF8E6F5807FF47E0175
:10128900758901758CFC758A18D2A9D2AFE4F50865
:10129900F509D28CC3E5099FE5089E40F7C2A9C2AA
:0212A9008C2295
:03000B0002148557
:10148500C0E0758CFC758A180509E5097002050828
:03149500D0E03272
:100D6800E4FDEDC3940874809480505CEDB40800F1
:100D7800504D900D81F8282873020D99020D9D029F
:100D88000DA1020DA5020DA9020DB1020DB9020DAA
:100D9800C1D2A4800ED2A48012D2A48016D2A4807C
:100DA8001AC2A4D2A3D2A28016C2A4D2A3C2A2807D
:100DB8000EC2A4C2A3D2A28006C2A4C2A3C2A21217
:080DC800127EE4F5800D809A13
:010DD0002200
:100CF6007D08EDC39412748094805065ED24F8B499
:100D060008005054900D1875F003A4C58325F0C54E
:100D16008373020D30020D34020D38020D3C020DB4
:100D260040020D48020D50020D58D2A4800ED2A4E6
:100D36008012D2A48016D2A4801AC2A4D2A3D2A2B0
:100D46008016C2A4D2A3C2A2800EC2A4C2A3D2A2FB
:100D56008006C2A4C2A3C2A212127EE4F5800D8050
:010D660091FB
:010D67002269
:0D000E0020B103120D6820B003120CF62281
:0513A5001213AAD2A101
:1013AA007F01EFD394007480948040127E02EED3C2
:0E13BA0094007480948040031E80F31F80E432
:0113C8002202
:0F151200D2A01213A5C2A01213AAC2A10213AA3B
:0A154700C2A01213A5D2A00213AA3D
:02104A00AD07F0
:10104C00E4FBFAEBC3940874809480501AEDC4133B
:10105C001313540124FF92A0ED25E0FD1213A5C239
:10106C00A11213AA0B80DCD2A01213AAD2A130A019
:10107C00130AEAD394C87480948040F2C2A112136C
:0B108C00AA7F0022C2A11213AA7F015C
:011097002236
:10119400E4FDFCD2A01213AAEDC3940874809480D9
:1011A400501AD2A11213AAEC25E0FCA2A0E4334207
:0E11B400041213AAC2A11213AA0D80DCAF040C
:0111C200220A
:10045C000000000000000000000000000000000090
:10046C000000000000000000000000000000000080
:10047C0000000000000000701800000000000000E8
:10048C000000000000008FFFFFC40000000000000F
:10049C00000000000013FFFFFFFF900000000000B1
:1004AC000000000000FFFFFFFFFFFF000000000046
:1004BC0000000000033FFFFFFFFFF92000000000D9
:1004CC00000000001F3FFFFFFFFFF9E000000000ED
:1004DC00000000001E7FFFFFFFFFF9F80000000086
:1004EC00000000001E7FFFFFFFFFFDF0000000007A
:1004FC00000000007E7FFFFFFFFFFCF0000000000B
:10050C00000000003EFFFFFFFFFFFCFC00000000AE
:10051C00000000003CE1FFFFFFFFC4F800000000FA
:10052C00000000007CE1FFFFFFFFC6F800000000A8
:10053C0000000000FCC0C90C1030E6780000000080
:10054C00000000007CC0C0389010667C00000000E9
:10055C00000000007DC8C611011C227E00000000B6
:10056C00000000007980C7003110227C00000000E0
:10057C000000000079804FC0F103237C00000000D4
:10058C0000000000F91C04080100237C000000009E
:10059C0000000000F93C4E3E3199B33C00000000D5
:1005AC0000000001F9FFFFFFFFFFFF3C000000000F
:1005BC0000000001F9FFFFFFFFFFFF3C00000000FF
:1005CC0000000001F9FFFFFFFFFFFF3C00000000EF
:1005DC0000000001F9FFFFFFFFFFFF3C00000000DF
:1005EC0000000001F9FFFFF87FFFFF3C0000000056
:1005FC0000000000F9FFFF8007FFFF3C0000000037
:10060C0000000000F9F0001B3000003C000000006E
:10061C000000000079C000C1044000FC0000000094
:10062C0000000000799FF908623FFFFE0000000007
:10063C0000000000793FF239793FFFFE0000000016
:10064C0000000000793FE719719FFFFC00000000DB
:10065C0000000000FD9FE441464F80780000000040
:10066C00000000003CE00913184E3E78000000002A
:10067C00000000003CFFC98C6300FE7C0000000001
:10068C00000000007CFFC9E9402FFEF000000000D4
:10069C00000000001EFFC988470FFCF0000000009E
:1006AC00000000001E7FC910934FFCF000000000FA
:1006BC00000000000E7FC849404FF9E00000000028
:1006CC00000000000F3F253C729FF9E00000000085
:1006DC0000000000073C727C7D9FFBC00000000006
:1006EC00000000000791F33C793FF380000000000C
:1006FC000000000003878C88467FF7800000000014
:10070C000000000003DC3E6118FFE7000000000061
:10071C000000000001E1FF0783FFCE000000000095
:10072C000000000000E7FFE01FFFDE0000000000FB
:10073C00000000000073FFFFFFFF9C0000000000A2
:10074C00000000000039FFFFFFFF38000000000030
:10075C0000000000001DFFFFFFFE70000000000005
:10076C0000000000000EFFFFFFFCE0000000000096
:10077C000000000000077FFFFFF9C0000000000030
:10078C00000000000003BFFFFFF38000000000002A
:10079C00000000000001CFFFFFE600000000000099
:1007AC0000000000000067FFFFCC0000000000000C
:1007BC0000000000000033FFFF38000000000000C4
:1007CC000000000000001CFFFE60000000000000A4
:1007DC00000000000000067FFDC0000000000000CB
:1007EC00000000000000019FF3000000000000006A
:1007FC0000000000000000CFCC0000000000000052
:10080C0000000000000000739800000000000000D1
:10081C000000000000000018600000000000000054
:10082C00000000000000000280000000000000003A
:10083C0000000000000000000000000000000000AC
:10084C00000000000000000000000000000000009C
:1011C300D3EF9400EE940040257DC7EDD3940074D3
:1011D30080948040127C01ECD3940074809480400E
:0E11E300031C80F31D80E4EF1F70D51E80D228
:0111F10022DB
:10130400E4FBC2A6D2A5D2A77F01FE1211C3E580D9
:101314005480648070100BEBD39464748094804088
:0A132400EDC2A77F0022C2A77F01DF
:01132E00229C
:0213C900A90772
:1013CB00E4FA121304EF700C0AEAD3946474809459
:1013DB008040EF22C2A6C2A5C2A78980D2A7C2A70E
:0113EB0022DF
:0A12AB00AB1BAA1CA91D12132FFF94
:0212B500A90787
:1012B700E4FA121304EF700C0AEAD394647480946E
:1012C7008040EF22D2A6C2A5C2A78980D2A7C2A713
:0112D70022F4
:10149800D2B2D2B47F301213C97F0C1213C97F01A4
:0314A8000213C963
:060AA4008B1B8A1C891D5A
:100AAA007F011213C97F341213C9E4F51EC3E51E70
:100ABA009420748094805031E51E2480FF1213C95B
:100ACA007F801213C9E4F51FC3E51F941074809444
:100ADA008050121212AB7401251DF51DE4351CF568
:100AEA001C051F80E3051E80C4E4F51EC3E51E94A1
:100AFA0020748094805031E51E2480FF1213C97F30
:100B0A00881213C9E4F51FC3E51F941074809480FA
:100B1A0050121212AB7401251DF51DE4351CF51C8B
:100B2A00051F80E3051E80C47F361213C97F300279
:020B3A0013C9DD
:0A1551003F065B4F666D7D077F6F5C
:0C12D800120FA4901552E493F5807F03E0
:1012E400E4FDFCC3ED9FEC9E5015E4FBFA0BBB0040
:0F12F400010AEB647B4A70F50DBD00010C80E42C
:0113030022C7
:100FA400EE7050EFB40800504A900FB4F82828733C
:100FB400020FCC020FD0020FD4020FD8020FDC02B2
:100FC4000FE3020FEA020FF1C2A4800EC2A4801143
:100FD400C2A48014C2A48017D2A4C2A3C2A222D2E3
:100FE400A4C2A3D2A222D2A4D2A3C2A222D2A4D2A5
:040FF400A3D2A222C0
:100EEF00E4FFFE120FA49015511212DE7F01120FB4
:100EFF00A49015531212DE1F120FA4901551E493F4
:100F0F00F5800F1212E4120FA490155AE493F58096
:100F1F001212E40F120FA4901554E493F5801F12D0
:100F2F0012E47F051212D87F061212D87F07120F14
:0D0F3F00A4901553E493F5807F030212E4A3
:10150200F1F3F2F6F4FCF8F9F9F8FCF4F6F2F3F17F
:10112300E4F55FC3E55F940874809480502EAF6646
:101133007E00EF6401700AE55F90150293541FF57A
:1011430090EF64024E700AE55F90150A93541FF501
:0C11530090AF677E001213F0055F80C7AC
:01115F00226D
:0413EC007F017E00FF
:1013F000EF1FAA0670011E4A6013E4FCFDC3ED94C2
:0D14000050EC940050EA0DBD00010C80F08E
:01140D0022BC
:100BD40075671E20B0211213EC20B003756601C3A3
:100BE400E55E94C874809480500A20B0071213EC18
:100BF400055E80EBE4F55E20B1211213EC20B10315
:100C0400756602C3E55E94C874809480500A20B16E
:100C1400071213EC055E80EBE4F55E20B22112139B
:100C2400EC20B20375670DC3E55E94C874809480AC
:100C3400500A20B2071213EC055E80EBE4F55E2047
:100C4400B3211213EC20B303756728C3E55E94C87F
:100C540074809480500A20B3071213EC055E80EB75
:060C6400E4F55E0211231D
:100B3C007FBFDFEFF7FBFDFE00003E4141413E0071
:100B4C0000000000217F01000000274545453900C9
:100B5C00000022494949360000000C14247F04008F
:100B6C000000725151514E0000003E494949260087
:100B7C0000004040404F70000000364949493600A3
:100B8C000000324949493E0000007F4848300000CF
:100B9C0000007F484C73000000007F494949000069
:100BAC0000003E414162000000007F08087F000009
:100BBC00000000FFFF000000007F1008047F000011
:080BCC007C4848FF48487C000A
:10140E00E4FDFCC3ED9FEC9E5015E4FBFA0BBB0014
:0F141E00010AEB64794A70F50DBD00010C80E402
:01142D00229C
:1011F200C2B6C2B5E4FEEEC394087480948050185F
:10120200EFC4131313540124FF92B4EF25E0FFD26D
:0E121200B60000C2B60E80DED2B50000C2B536
:0112200022AB
:100DD100E4F55FF560E4F9E9C39408748094805008
:100DE10035E4FF1211F2E9900B3C93F580E55E7555
:100DF100F008A42444F582E4340BF583E58229F557
:100E010082E43583F583E493FF1211F27F027E00C1
:100E110012140E0980C10560E5607002055FC3947C
:100E210032E55F940040AE055EE55E64127002F546
:010E31005E62
:010E3200229D
:101250007F01EFD394007480948040217E1EEED3F2
:1012600094007480948040127D82EDD39400748049
:0D127000948040031D80F31E80E41F80D594
:01127D00224E
:1011600075A0FE20B12DAFA07801EF08800103D853
:10117000FDF5A0C3E5649432E5639400501020B1FE
:101180000D1212500564E56470E9056380E5E4F52D
:0411900063F564227D
:10122100D3EF9400EE940040257D26EDD394007415
:1012310080948040127C82ECD3940074809480402E
:0E124100031C80F31D80E4EF1F70D51E80D2C9
:01124F00227C
:1014AB00E4F5A07F32FE12122175A0FF7F327E0081
:0314BB00021221F9
:100C7600021521E493A3F8E493A34003F68001F25E
:100C860008DFF48029E493A3F85407240CC8C3337F
:100C9600C4540F4420C8834004F456800146F6DF4E
:100CA600E4800B010204081020408090135AE47E71
:100CB600019360BCA3FF543F30E509541FFEE49343
:100CC600A360010ECF54C025E060A840B8E493A30A
:100CD600FAE493A3F8E493A3C8C582C8CAC583CA35
:100CE600F0A3C8C582C8CAC583CADFE9DEE780BEED
:01138000006C
:10132F00BB010689828A83E0225002E722BBFE02BC
:09133F00E32289828A83E49322EF
:10134800EF8DF0A4A8F0CF8CF0A428CE8DF0A42EB9
:02135800FE2273
:00000001FF
