:0300000002122ABF
:0C122A00787FE4F6D8FD75813602121CB6
:1010ED004D6F64756C653A20004E686170206D6FB0
:1010FD00646544616E6720636861794F7574207211
:04110D00616E676543
:0E121C001211D8121194120ECF12084480FB4A
:100006004D6F64756C653A20004E686170206D6FA7
:10001600646544616E6720636861794F7574207208
:10002600616E67650000000000000000000000002F
:1000360000000000000000000000000000000000BA
:100046000000000000000000000000701800000022
:10005600000000000000000000008FFFFFC4000049
:1000660000000000000000000013FFFFFFFF9000EB
:10007600000000000000000000FFFFFFFFFFFF0080
:100086000000000000000000033FFFFFFFFFF92013
:1000960000000000000000001F3FFFFFFFFFF9E027
:1000A60000000000000000001E7FFFFFFFFFF9F8C0
:1000B60000000000000000001E7FFFFFFFFFFDF0B4
:1000C60000000000000000007E7FFFFFFFFFFCF045
:1000D60000000000000000003EFFFFFFFFFFFCFCE9
:1000E60000000000000000003CE1FFFFFFFFC4F835
:1000F60000000000000000007CE1FFFFFFFFC6F8E3
:100106000000000000000000FCC0C90C1030E678BA
:1001160000000000000000007CC0C0389010667C23
:1001260000000000000000007DC8C611011C227EF0
:1001360000000000000000007980C7003110227C1A
:10014600000000000000000079804FC0F103237C0E
:100156000000000000000000F91C04080100237CD8
:100166000000000000000000F93C4E3E3199B33C0F
:100176000000000000000001F9FFFFFFFFFFFF3C49
:100186000000000000000001F9FFFFFFFFFFFF3C39
:100196000000000000000001F9FFFFFFFFFFFF3C29
:1001A6000000000000000001F9FFFFFFFFFFFF3C19
:1001B6000000000000000001F9FFFFF87FFFFF3C90
:1001C6000000000000000000F9FFFF8007FFFF3C71
:1001D6000000000000000000F9F0001B3000003CA9
:1001E600000000000000000079C000C1044000FCCF
:1001F6000000000000000000799FF908623FFFFE42
:100206000000000000000000793FF239793FFFFE50
:100216000000000000000000793FE719719FFFFC15
:100226000000000000000000FD9FE441464F80787A
:1002360000000000000000003CE00913184E3E7864
:1002460000000000000000003CFFC98C6300FE7C3B
:1002560000000000000000007CFFC9E9402FFEF00E
:1002660000000000000000001EFFC988470FFCF0D8
:1002760000000000000000001E7FC910934FFCF034
:1002860000000000000000000E7FC849404FF9E062
:1002960000000000000000000F3F253C729FF9E0BF
:1002A6000000000000000000073C727C7D9FFBC040
:1002B60000000000000000000791F33C793FF38046
:1002C600000000000000000003878C88467FF7804E
:1002D600000000000000000003DC3E6118FFE7009C
:1002E600000000000000000001E1FF0783FFCE00D0
:1002F600000000000000000000E7FFE01FFFDE0036
:1003060000000000000000000073FFFFFFFF9C00DC
:1003160000000000000000000039FFFFFFFF38006A
:100326000000000000000000001DFFFFFFFE70003F
:100336000000000000000000000EFFFFFFFCE000D0
:10034600000000000000000000077FFFFFF9C0006A
:1003560000000000000000000003BFFFFFF3800064
:1003660000000000000000000001CFFFFFE60000D3
:100376000000000000000000000067FFFFCC000046
:100386000000000000000000000033FFFF380000FE
:10039600000000000000000000001CFFFE600000DE
:1003A60000000000000000000000067FFDC0000005
:1003B60000000000000000000000019FF3000000A4
:1003C6000000000000000000000000CFCC0000008C
:1003D600000000000000000000000073980000000C
:1003E600000000000000000000000018600000008F
:1003F6000000000000000000000000028000000075
:1004060000000000000000000000000000000000E6
:1004160000000000000000000000000000000000D6
:10042600000000003F065B4F666D7D077F6FF1F3AE
:0E043600F2F6F4FCF8F9F9F8FCF4F6F2F3F142
:1011D800E4F50CF50DF508F509D288D2A8D2AFD2FE
:0211E800B22231
:041176007F017E0077
:10117A00EF1FAA0670011E4A600FE4FDEDC3940D2D
:09118A007480948050EA0D80F39A
:011193002239
:0300030002099A55
:10099A00C0E0C083C082C0D075D000C000C002C011
:0709AA0004C005C006C007F0
:1009B100750A007F467E0012117A20B203020A9660
:1009C1009003E820B218D3E5829400E583940040B7
:1009D1000D121176E582158270E9158380E520B24A
:1009E10003020A969001F430B218D3E5829400E52F
:1009F100839400400D121176E582158270E915830A
:100A010080E5E4FCECC39404748094804003020A02
:100A110096752C00C3E52C940874809480507290D4
:100A2100003C20B218D3E5829400E5839400400D88
:100A3100121176E582158270E9158380E59001F443
:100A410030B227D3E5829400E5839400401C121153
:100A510076050AE582158270021583D3E50A941E94
:100A61007480948040DAD2A8802B740E2CF8C000D8
:100A7100E6C313D000F6C3E50A940874809480405D
:100A810008740E2CF8E64480F6750A00052C020A5B
:050A9100150C020A052E
:100A9600D007D006D005D004D002D000D0D0D08266
:050AA600D083D0E03216
:1011EA008E2A8F2B7F89121236E52B2430FF0212AA
:0111FA0042B2
:1011FB008E2A8F2B7F8A121236E52B2430FF021298
:01120B0042A0
:100E8700E4F50CF50DF510F508F5097F6BFE121169
:100E9700FB7F6B7E001211EA7FC0121236E4F52841
:100EA700F529740F2529F58274003528F583E49315
:100EB700FF1212420529E52970020528C39409E5A6
:070EC700286480948040DBE9
:010ECE002201
:040E3500AF18AE172D
:100E39008E288F29E50D450C701FFC7D0A1210DBE9
:100E4900E5092FF509E5083EF508AF29AE28121185
:100E5900EA750C00750D018021E50D6401450C70E2
:100E69001CE5292509F509E5283508F508AF29AE56
:0E0E7900281211FB750C00750D03E4F5102214
:100D3000EE7052EF14B40F00504B900D4875F00355
:100D4000A4C58325F0C58373020D88020D88020DAA
:100D500088020D88020D88020D88020D88020D762A
:100D6000020D79020D88020D7C020D7F020D8802B2
:100D70000D88020D8222020CD3020BDB020C7102E1
:090D80000F4F0211C5120E87226B
:100ECF007F80121236E4F527C3E5279409748094C6
:100EDF0080500EE52790000693FF121242052780DF
:100EEF00E77FC0121236E4F527C3E5279409748013
:100EFF009480500EE52790000F93FF1212420527A2
:020F0F0080E779
:010F110022BD
:10084400E510C4540FF512E510540FF513E51270BA
:100854000DE513640D7007F517F518120E35E51242
:10086400700EE513640C7008F517751801120E3537
:10087400E5126401700EE51364087008F517751825
:1008840002120E35E5126405700EE513640E70084D
:10089400F517751803120E35E512700EE51364088A
:1008A4007008F517751804120E35E5126401700E00
:1008B400E513640C7008F517751805120E35E5126A
:1008C4006405700EE513640A7008F51775180612AE
:1008D4000E35E5126404700EE51364027008F51712
:1008E400751807120E35E5126405700EE5136402DF
:1008F4007008F517751808120E35E5126404700EA9
:10090400E513640A7008F517751809120E35E51217
:1009140064047042E5136404703CC3E5099414E56F
:100924000894005009AF09AE08120D3080287FC02A
:10093400121236E4F527C3E5279409748094805095
:100944000EE52790002193FF121242052780E77FCE
:10095400587E1B12117AE5126404702AE5136406AA
:1009640070247FC0121236E4F527C3E52794097476
:10097400809480500EE52790000F93FF12124205D9
:100984002780E7E4F510E51264047009E5136405B3
:050994007003120E8744
:01099900223B
:100D8900C2A58B807F017E00120DB2D2A77F057E9E
:100D990000120DB2C2A7EBC454F0F5807F017E00AA
:090DA900120DB2D2A77F057E00F5
:100DB200D3EF9400EE940040257DC7EDD3940074E8
:100DC20080948040127C01ECD39400748094804023
:0E0DD200031C80F31D80E4EF1F70D51E80D23D
:010DE00022F0
:0C123600AB07C2A7C2A6120D89C2A722F6
:0C124200AB07C2A7D2A6120D89C2A722DA
:101194007F321212367F281212367F0C1212367FDB
:0E11A400061212367F011212367F80021236BA
:1004440000000000000000000000000000000000A8
:100454000000000000000000000000000000000098
:100464000000000000000070180000000000000000
:100474000000000000008FFFFFC400000000000027
:10048400000000000013FFFFFFFF900000000000C9
:100494000000000000FFFFFFFFFFFF00000000005E
:1004A40000000000033FFFFFFFFFF92000000000F1
:1004B400000000001F3FFFFFFFFFF9E00000000005
:1004C400000000001E7FFFFFFFFFF9F8000000009E
:1004D400000000001E7FFFFFFFFFFDF00000000092
:1004E400000000007E7FFFFFFFFFFCF00000000023
:1004F400000000003EFFFFFFFFFFFCFC00000000C7
:10050400000000003CE1FFFFFFFFC4F80000000012
:10051400000000007CE1FFFFFFFFC6F800000000C0
:1005240000000000FCC0C90C1030E6780000000098
:10053400000000007CC0C0389010667C0000000001
:10054400000000007DC8C611011C227E00000000CE
:10055400000000007980C7003110227C00000000F8
:100564000000000079804FC0F103237C00000000EC
:1005740000000000F91C04080100237C00000000B6
:1005840000000000F93C4E3E3199B33C00000000ED
:1005940000000001F9FFFFFFFFFFFF3C0000000027
:1005A40000000001F9FFFFFFFFFFFF3C0000000017
:1005B40000000001F9FFFFFFFFFFFF3C0000000007
:1005C40000000001F9FFFFFFFFFFFF3C00000000F7
:1005D40000000001F9FFFFF87FFFFF3C000000006E
:1005E40000000000F9FFFF8007FFFF3C000000004F
:1005F40000000000F9F0001B3000003C0000000087
:100604000000000079C000C1044000FC00000000AC
:1006140000000000799FF908623FFFFE000000001F
:1006240000000000793FF239793FFFFE000000002E
:1006340000000000793FE719719FFFFC00000000F3
:1006440000000000FD9FE441464F80780000000058
:10065400000000003CE00913184E3E780000000042
:10066400000000003CFFC98C6300FE7C0000000019
:10067400000000007CFFC9E9402FFEF000000000EC
:10068400000000001EFFC988470FFCF000000000B6
:10069400000000001E7FC910934FFCF00000000012
:1006A400000000000E7FC849404FF9E00000000040
:1006B400000000000F3F253C729FF9E0000000009D
:1006C40000000000073C727C7D9FFBC0000000001E
:1006D400000000000791F33C793FF3800000000024
:1006E4000000000003878C88467FF780000000002C
:1006F4000000000003DC3E6118FFE700000000007A
:100704000000000001E1FF0783FFCE0000000000AD
:100714000000000000E7FFE01FFFDE000000000013
:10072400000000000073FFFFFFFF9C0000000000BA
:10073400000000000039FFFFFFFF38000000000048
:1007440000000000001DFFFFFFFE7000000000001D
:1007540000000000000EFFFFFFFCE00000000000AE
:100764000000000000077FFFFFF9C0000000000048
:10077400000000000003BFFFFFF380000000000042
:10078400000000000001CFFFFFE6000000000000B1
:1007940000000000000067FFFFCC00000000000024
:1007A40000000000000033FFFF38000000000000DC
:1007B4000000000000001CFFFE60000000000000BC
:1007C400000000000000067FFDC0000000000000E3
:1007D400000000000000019FF30000000000000082
:1007E40000000000000000CFCC000000000000006A
:1007F40000000000000000739800000000000000EA
:10080400000000000000001860000000000000006C
:100814000000000000000002800000000000000052
:1008240000000000000000000000000000000000C4
:1008340000000000000000000000000000000000B4
:100F8300D3EF9400EE940040257DC7EDD394007415
:100F930080948040127C01ECD39400748094804050
:0E0FA300031C80F31D80E4EF1F70D51E80D26A
:010FB100221D
:10109700E4FBC2A6D2A5D2A77F01FE120F83E5808B
:1010A7005480648070100BEBD394647480948040F8
:0A10B700EDC2A77F0022C2A77F014F
:0110C100220C
:02111100A9072C
:10111300E4FA121097EF700C0AEAD3946474809483
:101123008040EF22C2A6C2A5C2A78980D2A7C2A7C8
:011133002299
:0A103E00AB2DAA2EA92F1210C2FF3D
:02104800A907F6
:10104A00E4FA121097EF700C0AEAD394647480944D
:10105A008040EF22D2A6C2A5C2A78980D2A7C2A782
:01106A002263
:1011B200D2B2D2B47F301211117F0C1211117F0101
:0311C20002111106
:060AAB008B2D8A2E892F1D
:100AB1007F011211117F34121111E4F530C3E530B9
:100AC1009420748094805031E5302480FF121111FC
:100AD1007F80121111E4F531C3E5319410748094D3
:100AE10080501212103E7401252FF52FE4352EF59A
:100AF1002E053180E3053080C4E4F530C3E5309440
:100B010020748094805031E5302480FF1211117FD0
:100B110088121111E4F531C3E53194107480948089
:100B2100501212103E7401252FF52FE4352EF52EAB
:100B3100053180E3053080C47F361211117F300208
:020B4100111190
:0A124E003F065B4F666D7D077F6F62
:0C106B00120DE190124FE493F5807F031A
:10107700E4FDFCC3ED9FEC9E5015E4FBFA0BBB00AF
:0F108700010AEB647B4A70F50DBD00010C80E49B
:011096002237
:100DE100EE7050EFB40800504A900DF1F8282873C6
:100DF100020E09020E0D020E11020E15020E19024B
:100E01000E20020E27020E2EC2A4800EC2A4801153
:100E1100C2A48014C2A48017D2A4C2A3C2A222D2A7
:100E2100A4C2A3D2A222D2A4D2A3C2A222D2A4D269
:040E3100A3D2A22284
:100CD300E4FFFE120DE190124E1210717F01120D0E
:100CE300E19012501210711F120DE190124EE49315
:100CF300F5800F121077120DE1901257E493F580EF
:100D03001210770F120DE1901251E493F5801F1228
:100D130010777F0512106B7F0612106B7F07120D81
:0D0D2300E1901250E493F5807F03021077F9
:10120C00F1F3F2F6F4FCF8F9F9F8FCF4F6F2F3F178
:100F1200E4F529C3E529940874809480502EAF35F6
:100F22007E00EF6401700AE52990120C93541FF5BC
:100F320090EF64024E700AE52990121493541FF543
:0C0F420090AF367E00121138052980C7E0
:010F4E002280
:041134007F017E00B9
:10113800EF1FAA0670011E4A6013E4FCFDC3ED947C
:0D11480050EC940050EA0DBD00010C80F049
:011155002277
:100BDB0075361E20B02112113420B003753501C3B8
:100BEB00E52894C874809480500A20B00712113401
:100BFB00052880EBE4F52820B12112113420B10334
:100C0B00753502C3E52894C874809480500A20B1CE
:100C1B0007121134052880EBE4F52820B2211211BC
:100C2B003420B20375360DC3E52894C874809480C4
:100C3B00500A20B207121134052880EBE4F5282066
:100C4B00B32112113420B303753628C3E52894C899
:100C5B0074809480500A20B307121134052880EB5E
:060C6B00E4F528020F125F
:100B43007FBFDFEFF7FBFDFE00003E4141413E006A
:100B530000000000217F01000000274545453900C2
:100B6300000022494949360000000C14247F040088
:100B73000000725151514E0000003E494949260080
:100B830000004040404F700000003649494936009C
:100B93000000324949493E0000007F4848300000C8
:100BA30000007F484C73000000007F494949000062
:100BB30000003E414162000000007F08087F000002
:100BC300000000FFFF000000007F1008047F00000A
:080BD3007C4848FF48487C0003
:10115600E4FDFCC3ED9FEC9E5015E4FBFA0BBB00CF
:0F116600010AEB64794A70F50DBD00010C80E4BD
:011175002257
:100FB200C2B6C2B5E4FEEEC39408748094805018A1
:100FC200EFC4131313540124FF92B4EF25E0FFD2B0
:0E0FD200B60000C2B60E80DED2B50000C2B579
:010FE00022EE
:100C7100E4F529F52AE4F9E9C394087480948050D5
:100C810035E4FF120FB2E9900B4393F580E5287527
:100C9100F008A4244BF582E4340BF583E58229F5B1
:100CA10082E43583F583E493FF120FB27F027E0065
:100CB1001211560980C1052AE52A70020529C3943B
:100CC10032E529940040AE0528E52864127002F54A
:010CD10028FA
:010CD20022FF
:101010007F01EFD394007480948040217E1EEED334
:1010200094007480948040127D82EDD3940074808B
:0D103000948040031D80F31E80E41F80D5D6
:01103D002290
:100F4F0075A0FE20B12DAFA07801EF08800103D866
:100F5F00FDF5A0C3E5339432E5329400501020B173
:100F6F000D1210100533E53370E9053280E5E4F515
:040F7F0032F53322F2
:100FE100D3EF9400EE940040257D26EDD394007458
:100FF10080948040127C82ECD39400748094804071
:0E100100031C80F31D80E4EF1F70D51E80D20B
:01100F0022BE
:1011C500E4F5A07F32FE120FE175A0FF7F327E00AD
:0311D500020FE125
:1010C200BB010689828A83E0225002E722BBFE022C
:0910D200E32289828A83E493225F
:1010DB00EF8DF0A4A8F0CF8CF0A428CE8DF0A42E29
:0210EB00FE22E3
:00000001FF
