:030000000204A84F
:0C04A800787FE4F6D8FD75812702049AE5
:1003C1004D6F64756C653A20004E686170206D6FE9
:1003D100646544616E6720636861794F757420724A
:0403E100616E67657D
:0E049A0012044512042712037E12000680FB96
:1003E5004D6F64756C653A20004E686170206D6FC5
:1003F500646544616E6720636861794F7574207226
:04040500616E676558
:10044500E4F518F519F515F516D288D2A8D2AFD26C
:02045500B222D1
:040409007F017E00F1
:10040D00EF1FAA0670011E4A600FE4FDEDC3940DA7
:09041D007480948050EA0D80F314
:0104260022B3
:0300030002017B7C
:10017B00C0E0C083C082C0D075D000C000C002C038
:07018B0004C005C006C00717
:100192007517007F467E0012040D20B2030202771B
:1001A2009003E820B218D3E5829400E583940040DE
:1001B2000D120409E582158270E9158380E520B2EB
:1001C200030202779001F430B218D3E5829400E57D
:1001D200839400400D120409E582158270E91583AB
:1001E20080E5E4FCECC39404748094804003020232
:1001F20077752700C3E52794087480948050729025
:10020200003C20B218D3E5829400E5839400400DAF
:10021200120409E582158270E9158380E59001F4E4
:1002220030B227D3E5829400E5839400401C120487
:10023200090517E582158270021583D3E517941E0E
:100242007480948040DAD2A8802B741A2CF8C000F3
:10025200E6C313D000F6C3E5179408748094804077
:1002620008741A2CF8E64480F67517000527020177
:05027200F60C0201E69C
:10027700D007D006D005D004D002D000D0D0D0828D
:05028700D083D0E0323D
:100469008E258F267F891204B4E5262430FF0204E5
:01047900C0C2
:10047A008E258F267F8A1204B4E5262430FF0204D3
:01048A00C0B1
:10033600E4F518F519F51CF515F5167F6BFE120494
:100346007A7F6B7E001204697FC01204B4E4F52341
:10035600F52474EE2524F58274033523F583E4939E
:10036600FF1204C00524E52470020523C39409E5A1
:07037600236480948040DB4A
:01037D00225D
:0402E400AF21AE2078
:1002E8008E238F24E5194518701FFC7D0A120457C8
:1002F800E5162FF516E5153EF515AF24AE231204C5
:10030800697518007519018021E51964014518708F
:100318001CE5242516F516E5233515F515AF24AE8D
:0E0328002312047A751800751903E4F51C22DF
:0F048B00EE7008EF1424EC5005800012033622A7
:10037E007F801204B4E4F522C3E5229409748094BC
:10038E0080500EE5229003E593FF1204C0052280F3
:10039E00E77FC01204B4E4F522C3E5229409748009
:1003AE009480500EE5229003EE93FF1204C00522B6
:0203BE0080E7D6
:0103C000221A
:10000600E51CC4540FF51EE51C540FF51FE51E70C4
:100016000DE51F640D7007F520F5211202E4E51EBB
:10002600700EE51F640C7008F5207521011202E4BC
:10003600E51E6401700EE51F64087008F520752141
:10004600021202E4E51E6405700EE51F640E7008D8
:10005600F5207521031202E4E51E700EE51F640803
:100066007008F5207521041202E4E51E6401700E85
:10007600E51F640C7008F5207521051202E4E51EE3
:100086006405700EE51F640A7008F52075210612D6
:1000960002E4E51E6404700EE51F64027008F52094
:1000A6007521071202E4E51E6405700EE51F640261
:1000B6007008F5207521081202E4E51E6404700E2E
:1000C600E51F640A7008F5207521091202E4E51E91
:1000D60064047061E51F6404705BC3E5169414E55F
:1000E6001594005028AF16AE1512048B7FC012046B
:1000F600B4E4F522C3E5229409748094805036E571
:10010600229003F793FF1204C0052280E77FC012F6
:1001160004B4E4F522C3E522940974809480500E59
:10012600E52290040093FF1204C0052280E77F5861
:100136007E1B12040DE51E6404702AE51F6406701A
:10014600247FC01204B4E4F522C3E5229409748026
:100156009480500EE5229003EE93FF1204C0052210
:1001660080E7E4F51CE51E64047009E51F6405706C
:040176000312033637
:01017A002262
:10028C00C2A58B807F017E001202B5D2A77F057EAE
:10029C00001202B5C2A7EBC454F0F5807F017E00BA
:0902AC001202B5D2A77F057E0005
:1002B500D3EF9400EE940040257DC7EDD3940074F0
:1002C50080948040127C01ECD3940074809480402B
:0E02D500031C80F31D80E4EF1F70D51E80D245
:0102E30022F8
:0C04B400AB07C2A7C2A612028CC2A7228E
:0C04C000AB07C2A7D2A612028CC2A72272
:100427007F321204B47F281204B47F0C1204B47F05
:0E043700061204B47F011204B47F800204B4E4
:10045700EF8DF0A4A8F0CF8CF0A428CE8DF0A42EB9
:02046700FE2273
:00000001FF
