:030000000205787E
:0C057800787FE4F6D8FD75812702056A43
:1004AD004D6F64756C653A20004E686170206D6FFC
:1004BD00646544616E6720636861794F757420725D
:0404CD00616E676590
:0E056A001205241204EF12041012000680FB8A
:100453004D6F64756C653A20004E686170206D6F56
:10046300646544616E6720636861794F75742072B7
:0E047300616E67653F065B4F666D7D077F6FAC
:10052400E4F518F519F515F516D288D2A8D2AFD28C
:02053400B222F1
:0404D1007F017E0029
:1004D500EF1FAA0670011E4A600FE4FDEDC3940DDF
:0904E5007480948050EA0D80F34C
:0104EE0022EB
:0300030002015C9B
:10015C00C0E0C083C082C0D075D000C000C002C057
:07016C0004C005C006C00736
:100173007517007F467E001204D520B20302025891
:100183009003E820B218D3E5829400E583940040FD
:100193000D1204D1E582158270E9158380E520B242
:1001A300030202589001F430B218D3E5829400E5BB
:1001B300839400400D1204D1E582158270E9158302
:1001C30080E5E4FCECC39404748094804003020251
:1001D30058752700C3E52794087480948050729063
:1001E300003C20B218D3E5829400E5839400400DCF
:1001F3001204D1E582158270E9158380E59001F43C
:1002030030B227D3E5829400E5839400401C1204A6
:10021300D10517E582158270021583D3E517941E65
:100223007480948040DAD2A8802B741A2CF8C00012
:10023300E6C313D000F6C3E5179408748094804096
:1002430008741A2CF8E64480F67517000527020196
:05025300D70C0201C7F9
:10025800D007D006D005D004D002D000D0D0D082AC
:05026800D083D0E0325C
:100548008E258F267F89120584E5262430FF020533
:010558009012
:100559008E258F267F8A120584E5262430FF020521
:010569009001
:1003C800E4F518F519F51CF515F5167F6BFE120501
:1003D800597F6B7E001205487FC0120584E4F5231F
:1003E800F524745C2524F58274043523F583E4939D
:1003F800FF1205900524E52470020523C39409E53E
:07040800236480948040DBB7
:01040F0022CA
:04037600AF21AE20E5
:10037A008E238F24E5194518701FFC7D0A12053655
:10038A00E5162FF516E5153EF515AF24AE23120531
:10039A00487518007519018021E51964014518701E
:1003AA001CE5242516F516E5233515F515AF24AEFB
:0E03BA0023120559751800751903E4F51C226D
:10050D00EE7010EF24F86008240724EC50088003E7
:07051D0002026D1203C82267
:100410007F80120584E4F522C3E522940974809458
:1004200080500EE52290045393FF12059005228020
:10043000E77FC0120584E4F522C3E52294097480A5
:100440009480500EE52290045C93FF1205900522E3
:0204500080E743
:010452002287
:10000600E51CC4540FF51EE51C540FF51FE51E70C4
:100016000DE51F640D7007F520F521120376E51E28
:10002600700EE51F640C7008F52075210112037629
:10003600E51E6401700EE51F64087008F520752141
:1000460002120376E51E6405700EE51F640E700845
:10005600F520752103120376E51E700EE51F640870
:100066007008F520752104120376E51E6401700EF2
:10007600E51F640C7008F520752105120376E51E50
:100086006405700EE51F640A7008F52075210612D6
:100096000376E51E6404700EE51F64027008F52001
:1000A600752107120376E51E6405700EE51F6402CE
:1000B6007008F520752108120376E51E6404700E9B
:1000C600E51F640A7008F520752109120376E51EFE
:1000D60064047042E51F6404703CC3E5169414E59D
:1000E6001594005009AF16AE1512050D80287FC075
:1000F600120584E4F522C3E52294097480948050A5
:100106000EE52290046E93FF120590052280E77F8C
:10011600587E1B1204D5E51E6404702AE51F64068A
:1001260070247FC0120584E4F522C3E52294097485
:10013600809480500EE52290045C93FF1205900592
:100146002280E7E4F51CE51E64047009E51F6405DA
:0501560070031203C854
:01015B002281
:1002CA00C2A58B807F017E001202F3D2A77F057E32
:1002DA00001202F3C2A7EBC454F0F5807F017E003E
:0902EA001202F3D2A77F057E0089
:1002F300D3EF9400EE940040257DC7EDD3940074B2
:1003030080948040127C01ECD394007480948040EC
:0E031300031C80F31D80E4EF1F70D51E80D206
:0103210022B9
:0C058400AB07C2A7C2A61202CAC2A7227F
:0C059000AB07C2A7D2A61202CAC2A72263
:1004EF007F321205847F281205847F0C1205847FCA
:0E04FF00061205847F011205847F80020584A9
:0A059C003F065B4F666D7D077F6F21
:0C04810012032290059DE493F5807F0398
:10048D00E4FDFCC3ED9FEC9E5015E4FBFA0BBB00A5
:0F049D00010AEB647B4A70F50DBD00010C80E491
:0104AC00222D
:10032200EE7050EFB40800504A900332F828287358
:1003320002034A02034E02035202035602035A0206
:10034200036102036802036FC2A4800EC2A480117B
:10035200C2A48014C2A48017D2A4C2A3C2A222D271
:10036200A4C2A3D2A222D2A4D2A3C2A222D2A4D233
:04037200A3D2A2224E
:10026D00E4FFFE12032290059C1204877F01120306
:10027D002290059E1204871F12032290059CE49381
:10028D00F5800F12048D1203229005A5E493F580DD
:10029D0012048D0F12032290059FE493F5801F1217
:1002AD00048D7F051204817F061204817F071203DE
:0D02BD002290059EE493F5807F0302048DDE
:10053600EF8DF0A4A8F0CF8CF0A428CE8DF0A42ED9
:02054600FE2293
:00000001FF
