:03000000020E5C91
:0C0E5C00787FE4F6D8FD75817D020EA3BE
:101694004D6F64756C653A20004E686170206D6F03
:1016A400646544616E6720636861794F7574207264
:0416B400616E676597
:0E18820012181F1217811213DC120A4E80FB7F
:10001E004D6F64756C653A20004E686170206D6F8F
:10002E00646544616E6720636861794F75742072F0
:10003E00616E67653F065B4F666D7D077F6F0000E3
:10004E0000000000000000000000000000000000A2
:10005E000000000000000000000000000000000092
:10006E0000000000007018000000000000000000FA
:10007E00000000008FFFFFC4000000000000000021
:10008E0000000013FFFFFFFF9000000000000000C3
:10009E00000000FFFFFFFFFFFF0000000000000058
:1000AE000000033FFFFFFFFFF920000000000000EB
:1000BE0000001F3FFFFFFFFFF9E0000000000000FF
:1000CE0000001E7FFFFFFFFFF9F800000000000098
:1000DE0000001E7FFFFFFFFFFDF00000000000008C
:1000EE0000007E7FFFFFFFFFFCF00000000000001D
:1000FE0000003EFFFFFFFFFFFCFC000000000000C1
:10010E0000003CE1FFFFFFFFC4F80000000000000C
:10011E0000007CE1FFFFFFFFC6F8000000000000BA
:10012E000000FCC0C90C1030E67800000000000092
:10013E0000007CC0C0389010667C000000000000FB
:10014E0000007DC8C611011C227E000000000000C8
:10015E0000007980C7003110227C000000000000F2
:10016E00000079804FC0F103237C000000000000E6
:10017E000000F91C04080100237C000000000000B0
:10018E000000F93C4E3E3199B33C000000000000E7
:10019E000001F9FFFFFFFFFFFF3C00000000000021
:1001AE000001F9FFFFFFFFFFFF3C00000000000011
:1001BE000001F9FFFFFFFFFFFF3C00000000000001
:1001CE000001F9FFFFFFFFFFFF3C000000000000F1
:1001DE000001F9FFFFF87FFFFF3C00000000000068
:1001EE000000F9FFFF8007FFFF3C00000000000049
:1001FE000000F9F0001B3000003C00000000000081
:10020E00000079C000C1044000FC000000000000A6
:10021E000000799FF908623FFFFE00000000000019
:10022E000000793FF239793FFFFE00000000000028
:10023E000000793FE719719FFFFC000000000000ED
:10024E000000FD9FE441464F807800000000000052
:10025E0000003CE00913184E3E780000000000003C
:10026E0000003CFFC98C6300FE7C00000000000013
:10027E0000007CFFC9E9402FFEF0000000000000E6
:10028E0000001EFFC988470FFCF0000000000000B0
:10029E0000001E7FC910934FFCF00000000000000C
:1002AE0000000E7FC849404FF9E00000000000003A
:1002BE0000000F3F253C729FF9E000000000000097
:1002CE000000073C727C7D9FFBC000000000000018
:1002DE0000000791F33C793FF3800000000000001E
:1002EE00000003878C88467FF78000000000000026
:1002FE00000003DC3E6118FFE70000000000000074
:10030E00000001E1FF0783FFCE00000000000000A7
:10031E00000000E7FFE01FFFDE000000000000000D
:10032E0000000073FFFFFFFF9C00000000000000B4
:10033E0000000039FFFFFFFF380000000000000042
:10034E000000001DFFFFFFFE700000000000000017
:10035E000000000EFFFFFFFCE000000000000000A8
:10036E00000000077FFFFFF9C00000000000000042
:10037E0000000003BFFFFFF380000000000000003C
:10038E0000000001CFFFFFE60000000000000000AB
:10039E000000000067FFFFCC00000000000000001E
:1003AE000000000033FFFF380000000000000000D6
:1003BE00000000001CFFFE600000000000000000B6
:1003CE0000000000067FFDC00000000000000000DD
:1003DE0000000000019FF30000000000000000007C
:1003EE000000000000CFCC00000000000000000064
:1003FE0000000000007398000000000000000000E4
:10040E000000000000186000000000000000000066
:10041E00000000000002800000000000000000004C
:10042E0000000000000000000000000000000000BE
:10043E0000000000000000000000000000003F0669
:10044E005B4F666D7D077F6FF1F3F2F6F4FCF8F902
:08045E00F9F8FCF4F6F2F3F1E9
:10145C0011293F065B4F666D7D077F6F777C395E88
:0D146C00797100083B3F3F3F3F3F3F3F3F4E
:10181F00E4F543F544F521F522D288D2A8D2AFD210
:02182F00B222E3
:041763007F017E0084
:10176700EF1FAA0670011E4A600FE4FDEDC3940D3A
:091777007480948050EA0D80F3A7
:011780002246
:03000300020B8568
:100B8500C0E0C083C082C0D075D000C000C002C024
:070B950004C005C006C00703
:100B9C007523007F467E0012176720B203020C817A
:100BAC009003E820B218D3E5829400E583940040CA
:100BBC000D121763E582158270E9158380E520B26A
:100BCC0003020C819001F430B218D3E5829400E555
:100BDC00839400400D121763E582158270E915832A
:100BEC0080E5E4FCECC39404748094804003020C14
:100BFC0081756900C3E56994087480948050729083
:100C0C00003C20B218D3E5829400E5839400400D9B
:100C1C00121763E582158270E9158380E59001F463
:100C2C0030B227D3E5829400E5839400401C121760
:100C3C00630523E582158270021583D3E523941E88
:100C4C007480948040DAD2A8802B74452CF8C000B4
:100C5C00E6C313D000F6C3E5239408748094804057
:100C6C000874452CF8E64480F67523000569020CDF
:050C7C00000C020BF06A
:100C8100D007D006D005D004D002D000D0D0D08279
:050C9100D083D0E03229
:101831008E638F647F89121890E5642430FF02184B
:011841009C0A
:101842008E638F647F8A121890E5642430FF021839
:011852009CF9
:10139400E4F543F544F547F521F5227F6BFE121879
:1013A400427F6B7E001218317FC0121890E4F56101
:1013B400F56274272562F58274003561F583E49340
:1013C400FF12189C0562E56270020561C39409E589
:0713D400616480948040DB9E
:0113DB0022EF
:0412F400AF51AE50F8
:1012F8008E618F62E5444543701FFC7D0A120F889A
:10130800E5222FF522E5213EF521AF62AE611218E4
:10131800317543007544018021E5446401454370FB
:101328001CE5622522F522E5613521F521AF62AE83
:0E13380061121842754300754403E4F5472224
:10112C00EE705AEF14B40F00505390114475F00345
:10113C00A4C58325F0C583730211710211740211C9
:10114C007702118C02118C02118C02118C02117A13
:10115C0002117D02118C02118002118302118C028A
:10116C00118C02118602118D02000E02086602110A
:10117C00EB020DC60210CA02149702180C1213943B
:01118C002240
:05000600C2ABC2A922FB
:1013DC007F80121890E4F560C3E5609409748094E2
:1013EC0080500EE56090001E93FF12189C056080E3
:1013FC00E77FC0121890E4F560C3E560940974802F
:10140C009480500EE56090002793FF12189C0560A5
:02141C0080E767
:01141E0022AB
:100A4E00E547C4540FF549E547540FF54AE549709B
:100A5E000DE54A640D7007F550F5511212F4E54993
:100A6E00700EE54A640C7008F5507551011212F4BF
:100A7E00E5496401700EE54A64087008F550755139
:100A8E00021212F4E5496405700EE54A640E700810
:100A9E00F5507551031212F4E549700EE54A6408DB
:100AAE007008F5507551041212F4E5496401700E88
:100ABE00E54A640C7008F5507551051212F4E549BB
:100ACE006405700EE54A640A7008F55075510612F9
:100ADE0012F4E5496404700EE54A64027008F5509C
:100AEE007551071212F4E5496405700EE54A640269
:100AFE007008F5507551081212F4E5496404700E31
:100B0E00E54A640A7008F5507551091212F4E54968
:100B1E0064047042E54A6404703CC3E5229414E513
:100B2E002194005009AF22AE2112112C80287FC0D3
:100B3E00121890E4F560C3E56094097480948050B7
:100B4E000EE56090003993FF12189C056080E77FD8
:100B5E00587E1B121767E5496404700BE54A64065C
:100B6E007005F547120006E54964047009E54A640C
:060B7E0005700312139440
:010B8400224E
:10124800C2A58B807F017E00121271D2A77F057E16
:1012580000121271C2A7EBC454F0F5807F017E0022
:09126800121271D2A77F057E006D
:10127100D3EF9400EE940040257DC7EDD394007424
:1012810080948040127C01ECD3940074809480405F
:0E129100031C80F31D80E4EF1F70D51E80D279
:01129F00222C
:0C189000AB07C2A7C2A6121248C2A722D2
:0C189C00AB07C2A7D2A6121248C2A722B6
:101781007F321218907F281218907F0C1218907FC8
:0E179100061218907F011218907F80021890A7
:10185300438910758DFF758BFFD2ABD2AFD28E2229
:03001B0002179F2A
:10179F00C0E0758DFF758BFF0578E57870020577D2
:0B17AF000576E57670020575D0E0328B
:10118D00121853D3E5769464E5759400401BE4F58D
:10119D0075F5763001080574E5747002057320014C
:1011AD0008E574157470021573E574B4E807E573FA
:1011BD00B40302C201E57445737002D201D3E57820
:1011CD0094E8E57794034005E4F577F578C3E57881
:0E11DD009574E57795735003D2A122C2A1222A
:10147900110A3F065B4F666D7D077F6F777C395E8A
:0314890079710076
:0B15E300740A2DF8E6F5807FF47E010D
:1015EE00758901758CFC758A18D2A9D2AFE4F508FD
:1015FE00F509D28CC3E5099FE5089E40F7C2A9C242
:02160E008C222C
:03000B000217D306
:1017D300C0E0758CFC758A180509E50970020508D7
:0317E300D0E03221
:10106100E4FDEDC3940874809480505CEDB40800F5
:10107100504D90107AF828287302109202109602AF
:10108100109A02109E0210A20210AA0210B20210BF
:10109100BAD2A4800ED2A48012D2A48016D2A48087
:1010A1001AC2A4D2A3D2A28016C2A4D2A3C2A28081
:1010B1000EC2A4C2A3D2A28006C2A4C2A3C2A2121B
:0810C10015E3E4F5800D809AAF
:0110C9002204
:100FEF007D08EDC39412748094805065ED24F8B49D
:100FFF000800505490101175F003A4C58325F0C557
:10100F00837302102902102D0210310210350210C5
:10101F0039021041021049021051D2A4800ED2A4FD
:10102F008012D2A48016D2A4801AC2A4D2A3D2A2B4
:10103F008016C2A4D2A3C2A2800EC2A4C2A3D2A2FF
:10104F008006C2A4C2A3C2A21215E3E4F5800D80EC
:01105F0091FF
:01106000226D
:0D000E0020B10312106120B003120FEF2289
:0A18A8003F065B4F666D7D077F6F02
:0A148C00086B3F3F3F3F3F3F3F3FEB
:1017BA008F678D681218737FA2121346AF671213D0
:0917CA0046AF681213460218B282
:0216FF008F67F3
:101701001218737FA2121346AF6712134612187391
:0F1711007FA31213461214CB8F681218B2AF6861
:0117200022A6
:101587007F01EFD394007480948040217E8EEED348
:1015970094007480948040127D02EDD3940074808F
:0D15A700948040031D80F31E80E41F80D55A
:0115B4002214
:1017E600E4F56A758902758C9C758A9CD2A9D2AF7C
:0317F600D28C2270
:03000B00020EE8FA
:100EE800C0E0C083C082C0D075D000C000857290B9
:100EF800E56AB40800504D900F06F8282873020FD1
:100F080046020F42020F3A020F36020F2E020F2A34
:100F1800020F22020F1EC2A28002D2A2C2A3C2A442
:100F28008022C2A28002D2A2D2A3C2A48016C2A2E8
:100F38008002D2A2C2A3D2A4800AC2A28002D2A2F4
:100F4800D2A3D2A4746B256AF8E6F580056AD3E5C6
:100F58006A9407748094804003756A00D000D0D0EA
:070F6800D082D083D0E032FB
:10086600E4F561F562F563F564F565F5661217E67C
:1008760020B13112158720B107AD627F021217BA77
:10088600C3E56694C8E5659400501020B20D056670
:10089600E5667002056512158780E5E4F565F5667F
:1008A600F565F56620B03012158720B00A7F021272
:1008B60016FF7561008F62C3E56694C8E56594000E
:1008C600501020B20D0566E56670020565121587A3
:1008D60080E5E4F565F56620B23B12158720B2087F
:1008E6000562E56270020561C3E56694C8E5659434
:1008F60000501020B20D0566E566700205651215FA
:100906008780E5E4F565F566B5620AE561B401053B
:10091600E4F561F56220B32B12158720B305E4F5E3
:1009260061F562C3E56694C8E5659400501020B28F
:100936000D0566E5667002056512158780E5E4F526
:1009460065F566AE63AF647C037DE8120F9A74A802
:100956002FF58274183EF583E493F56BAE63AF64AE
:100966007C037DE8120F9AAA04AB057D647C00AF78
:1009760003AE02120F9A74A82FF58274183EF583FF
:10098600E493F56C7D647C00AF03AE02120F9AAA65
:1009960004AB057D0A7C00AF03AE02120F9A74A861
:1009A6002FF58274183EF583E493F56D7D0A7C007D
:1009B600AF03AE02120F9A74A82DF58274183CF597
:1009C60083E493F56EAE61AF627C037DE8120F9A05
:1009D60074A82FF58274183EF583E493F56FAE6123
:1009E600AF627C037DE8120F9AAA04AB057D647C96
:1009F60000AF03AE02120F9A74A82FF58274183E48
:100A0600F583E493F5707D647C00AF03AE02120FAC
:100A16009AAA04AB057D0A7C00AF03AE02120F9AB8
:100A260074A82FF58274183EF583E493F5717D0A58
:100A36007C00AF03AE02120F9A74A82DF5827418CB
:070A46003CF583E493F57217
:010A4D002286
:0516B8001216BDD2A1D5
:1016BD007F01EFD394007480948040127E02EED3AC
:0E16CD0094007480948040031E80F31F80E41C
:0116DB0022EC
:0F187300D2A01216B8C2A01216BDC2A10216BD95
:0A18B200C2A01216B8D2A00216BDA3
:02134600AD07F1
:10134800E4FBFAEBC3940874809480501AEDC4133C
:101358001313540124FF92A0ED25E0FD1216B8C224
:10136800A11216BD0B80DCD2A01216BDD2A130A0EE
:10137800130AEAD394C87480948040F2C2A112166A
:0B138800BD7F0022C2A11216BD7F0134
:011393002237
:1014CB00E4FDFCD2A01216BDEDC394087480948089
:1014DB00501AD2A11216BDEC25E0FCA2A0E43342B7
:0E14EB00041216BDC2A11216BD0D80DCAF04A6
:0114F90022D0
:100466000000000000000000000000000000000086
:100476000000000000000000000000000000000076
:1004860000000000000000701800000000000000DE
:100496000000000000008FFFFFC400000000000005
:1004A600000000000013FFFFFFFF900000000000A7
:1004B6000000000000FFFFFFFFFFFF00000000003C
:1004C60000000000033FFFFFFFFFF92000000000CF
:1004D600000000001F3FFFFFFFFFF9E000000000E3
:1004E600000000001E7FFFFFFFFFF9F8000000007C
:1004F600000000001E7FFFFFFFFFFDF00000000070
:10050600000000007E7FFFFFFFFFFCF00000000000
:10051600000000003EFFFFFFFFFFFCFC00000000A4
:10052600000000003CE1FFFFFFFFC4F800000000F0
:10053600000000007CE1FFFFFFFFC6F8000000009E
:1005460000000000FCC0C90C1030E6780000000076
:10055600000000007CC0C0389010667C00000000DF
:10056600000000007DC8C611011C227E00000000AC
:10057600000000007980C7003110227C00000000D6
:100586000000000079804FC0F103237C00000000CA
:1005960000000000F91C04080100237C0000000094
:1005A60000000000F93C4E3E3199B33C00000000CB
:1005B60000000001F9FFFFFFFFFFFF3C0000000005
:1005C60000000001F9FFFFFFFFFFFF3C00000000F5
:1005D60000000001F9FFFFFFFFFFFF3C00000000E5
:1005E60000000001F9FFFFFFFFFFFF3C00000000D5
:1005F60000000001F9FFFFF87FFFFF3C000000004C
:1006060000000000F9FFFF8007FFFF3C000000002C
:1006160000000000F9F0001B3000003C0000000064
:100626000000000079C000C1044000FC000000008A
:1006360000000000799FF908623FFFFE00000000FD
:1006460000000000793FF239793FFFFE000000000C
:1006560000000000793FE719719FFFFC00000000D1
:1006660000000000FD9FE441464F80780000000036
:10067600000000003CE00913184E3E780000000020
:10068600000000003CFFC98C6300FE7C00000000F7
:10069600000000007CFFC9E9402FFEF000000000CA
:1006A600000000001EFFC988470FFCF00000000094
:1006B600000000001E7FC910934FFCF000000000F0
:1006C600000000000E7FC849404FF9E0000000001E
:1006D600000000000F3F253C729FF9E0000000007B
:1006E60000000000073C727C7D9FFBC000000000FC
:1006F600000000000791F33C793FF3800000000002
:100706000000000003878C88467FF7800000000009
:100716000000000003DC3E6118FFE7000000000057
:100726000000000001E1FF0783FFCE00000000008B
:100736000000000000E7FFE01FFFDE0000000000F1
:10074600000000000073FFFFFFFF9C000000000098
:10075600000000000039FFFFFFFF38000000000026
:1007660000000000001DFFFFFFFE700000000000FB
:1007760000000000000EFFFFFFFCE000000000008C
:100786000000000000077FFFFFF9C0000000000026
:10079600000000000003BFFFFFF380000000000020
:1007A600000000000001CFFFFFE60000000000008F
:1007B60000000000000067FFFFCC00000000000002
:1007C60000000000000033FFFF38000000000000BA
:1007D6000000000000001CFFFE600000000000009A
:1007E600000000000000067FFDC0000000000000C1
:1007F600000000000000019FF30000000000000060
:1008060000000000000000CFCC0000000000000047
:1008160000000000000000739800000000000000C7
:10082600000000000000001860000000000000004A
:100836000000000000000002800000000000000030
:1008460000000000000000000000000000000000A2
:100856000000000000000000000000000000000092
:1014FA00D3EF9400EE940040257DC7EDD394007499
:10150A0080948040127C01ECD394007480948040D3
:0E151A00031C80F31D80E4EF1F70D51E80D2ED
:0115280022A0
:10166900E4FBC2A6D2A5D2A77F01FE1214FAE58037
:101679005480648070100BEBD39464748094804020
:0A168900EDC2A77F0022C2A77F0177
:011693002234
:0216DC00A9075C
:1016DE00E4FA121669EF700C0AEAD39464748094DB
:1016EE008040EF22C2A6C2A5C2A78980D2A7C2A7F8
:0116FE0022C9
:0A161000AB1BAA1CA91D120F6FFFEF
:02161A00A9071E
:10161C00E4FA121669EF700C0AEAD394647480949D
:10162C008040EF22D2A6C2A5C2A78980D2A7C2A7AA
:01163C00228B
:1017F900D2B2D2B47F301216DC7F0C1216DC7F0114
:031809000216DCE8
:060C96008B1B8A1C891D66
:100C9C007F011216DC7F341216DCE4F51EC3E51E50
:100CAC009420748094805031E51E2480FF1216DC51
:100CBC007F801216DCE4F51FC3E51F94107480943A
:100CCC008050121216107401251DF51DE4351CF50B
:100CDC001C051F80E3051E80C4E4F51EC3E51E94AD
:100CEC0020748094805031E51E2480FF1216DC7F26
:100CFC00881216DCE4F51FC3E51F941074809480F1
:100D0C0050121216107401251DF51DE4351CF51C2E
:100D1C00051F80E3051E80C47F361216DC7F30026F
:020D2C0016DCD3
:0A18BC003F065B4F666D7D077F6FEE
:0C163D001212A09018BDE493F5807F030A
:10164900E4FDFCC3ED9FEC9E5015E4FBFA0BBB00D7
:0F165900010AEB647B4A70F50DBD00010C80E4C3
:01166800225F
:1012A000EE7050EFB40800504A9012B0F82828733E
:1012B0000212C80212CC0212D00212D40212D802B8
:1012C00012DF0212E60212EDC2A4800EC2A4801147
:1012D000C2A48014C2A48017D2A4C2A3C2A222D2E4
:1012E000A4C2A3D2A222D2A4D2A3C2A222D2A4D2A6
:0412F000A3D2A222C1
:1011EB00E4FFFE1212A09018BC1216437F011212DC
:1011FB00A09018BE1216431F1212A09018BCE493B5
:10120B00F5800F1216491212A09018C5E493F580C1
:10121B001216490F1212A09018BFE493F5801F12FB
:10122B0016497F0512163D7F0612163D7F071212D7
:0D123B00A09018BEE493F5807F03021649D1
:10186300F1F3F2F6F4FCF8F9F9F8FCF4F6F2F3F11B
:10141F00E4F562C3E562940874809480502EAF7C2B
:10142F007E00EF6401700AE56290186393541FF514
:10143F0090EF64024E700AE56290186B93541FF59B
:0C144F0090AF7D7E00121725056280C75B
:01145B00226E
:041721007F017E00C6
:10172500EF1FAA0670011E4A6013E4FCFDC3ED9489
:0D17350050EC940050EA0DBD00010C80F056
:011742002284
:100DC600757D1E20B02112172120B003757C01C34A
:100DD600E56194C874809480500A20B007121721E8
:100DE600056180EBE4F56120B12112172120B103E2
:100DF600757C02C3E56194C874809480500A20B162
:100E060007121721056180EBE4F56120B221121764
:100E16002120B203757D0DC3E56194C8748094806A
:100E2600500A20B207121721056180EBE4F5612014
:100E3600B32112172120B303757D28C3E56194C839
:100E460074809480500A20B307121721056180EB45
:060E5600E4F56102141F27
:100D2E007FBFDFEFF7FBFDFE00003E4141413E007D
:100D3E0000000000217F01000000274545453900D5
:100D4E00000022494949360000000C14247F04009B
:100D5E000000725151514E0000003E494949260093
:100D6E0000004040404F70000000364949493600AF
:100D7E000000324949493E0000007F4848300000DB
:100D8E0000007F484C73000000007F494949000075
:100D9E0000003E414162000000007F08087F000015
:100DAE00000000FFFF000000007F1008047F00001D
:080DBE007C4848FF48487C0016
:10174300E4FDFCC3ED9FEC9E5015E4FBFA0BBB00DC
:0F175300010AEB64794A70F50DBD00010C80E4CA
:011762002264
:10152900C2B6C2B5E4FEEEC3940874809480501824
:10153900EFC4131313540124FF92B4EF25E0FFD233
:0E154900B60000C2B60E80DED2B50000C2B5FC
:011557002271
:1010CA00E4F562F563E4F9E9C39408748094805006
:1010DA0035E4FF121529E9900D2E93F580E5617527
:1010EA00F008A42436F582E4340DF583E58229F567
:1010FA0082E43583F583E493FF1215297F027E008B
:10110A001217430980C10563E56370020562C3943F
:10111A0032E562940040AE0561E56164127002F541
:01112A006163
:01112B0022A1
:1015B5007F01EFD394007480948040217E1EEED38A
:1015C50094007480948040127D82EDD394007480E1
:0D15D500948040031D80F31E80E41F80D52C
:0115E20022E6
:1014970075A0FE20B12DAFA07801EF08800103D819
:1014A700FDF5A0C3E57A9432E5799400501020B198
:1014B7000D1215B5057AE57A70E9057980E5E4F549
:0414C70079F57A2217
:10155800D3EF9400EE940040257D26EDD3940074DB
:1015680080948040127C82ECD394007480948040F4
:0E157800031C80F31D80E4EF1F70D51E80D28F
:011586002242
:10180C00E4F5A07F32FE12155875A0FF7F327E00E2
:03181C000215585A
:100E6800021882E493A3F8E493A34003F68001F206
:100E780008DFF48029E493A3F85407240CC8C3338B
:100E8800C4540F4420C8834004F456800146F6DF5A
:100E9800E4800B010204081020408090145CE47E7A
:100EA800019360BCA3FF543F30E509541FFEE4934F
:100EB800A360010ECF54C025E060A840B8E493A316
:100EC800FAE493A3F8E493A3C8C582C8CAC583CA41
:100ED800F0A3C8C582C8CAC583CADFE9DEE780BEF9
:011496000055
:100F6F00BB010689828A83E0225002E722BBFE0280
:090F7F00E32289828A83E49322B3
:100F8800EF8DF0A4A8F0CF8CF0A428CE8DF0A42E7D
:020F9800FE2237
:100F9A00BC000BBE0029EF8DF084FFADF022E4CC3B
:100FAA00F875F008EF2FFFEE33FEEC33FCEE9DEC04
:100FBA00984005FCEE9DFE0FD5F0E9E4CEFD22ED4A
:100FCA00F8F5F0EE8420D21CFEADF075F008EF2F94
:100FDA00FFED33FD4007985006D5F0F222C398FD85
:050FEA000FD5F0EA2222
:00000001FF
