:0300000002007586
:0C007500787FE4F6D8FD75810B020003D3
:10000300750A00750BFE850BA020B1FA120047207C
:10001300B1F4AF0B7801EF08800103D8FD750A0036
:10002300F50BC3E5099432E5089400501020B10D97
:100033001200470509E50970E9050880E5E4F508BC
:04004300F50980C279
:100047007F01EFD394007480948040217E26EED305
:1000570094007480948040127D82EDD39400748064
:0D006700948040031D80F31E80E41F80D5AF
:010074002269
:00000001FF
