:030000000201F406
:0C01F400787FE4F6D8FD75811802023B0C
:0A0493003F065B4F666D7D077F6F2B
:0A04880008093F3F3F3F3F3F3F3F61
:10044D008F178D181204797FA212035CAF17120358
:09045D005CAF1812035C02049D5F
:02042B008F1729
:10042D001204797FA212035CAF1712035C120479D8
:0F043D007FA312035C1203AA8F1812049DAF183D
:01044C00228D
:1003D9007F01EFD394007480948040217E8EEED308
:1003E90094007480948040127D02EDD3940074804F
:0D03F900948040031D80F31E80E41F80D51A
:0104060022D3
:10046600E4F508758902758C9C758A9CD2A9D2AF71
:03047600D28C2203
:03000B000202806E
:10028000C0E0C083C082C0D075D000C0008510908F
:10029000E508B40800504D90029EF8282873020229
:1002A000DE0202DA0202D20202CE0202C60202C25A
:1002B0000202BA0202B6C2A28002D2A2C2A3C2A4A1
:1002C0008022C2A28002D2A2D2A3C2A48016C2A25D
:1002D0008002D2A2C2A3D2A4800AC2A28002D2A269
:1002E000D2A3D2A474092508F8E6F5800508D3E561
:1002F000089407748094804003750800D000D0D023
:07030000D082D083D0E0326F
:10000E00E4F511F512F513F51412046620B1311250
:10001E0003D920B107AD127F0212044DC3E5169429
:10002E00C8E5159400501020B20D0516E5167002A5
:10003E0005151203D980E5E4F515F516F515F51637
:10004E0020B0301203D920B00A7F0212042B751192
:10005E00008F12C3E51694C8E5159400501020B217
:10006E000D0516E516700205151203D980E5E4F5A7
:10007E0015F51620B23B1203D920B2080512E5126F
:10008E0070020511C3E51694C8E5159400501020B2
:10009E00B20D0516E516700205151203D980E5E4BA
:1000AE00F515F516B5120AE511B40105E4F511F5CD
:1000BE001220B32B1203D920B305E4F511F512C3A8
:1000CE00E51694C8E5159400501020B20D0516E5FE
:1000DE0016700205151203D980E5E4F515F516AE76
:1000EE0013AF147C037DE812030774932FF582740B
:1000FE00043EF583E493F509AE13AF147C037DE85B
:10010E00120307AA04AB057D647C00AF03AE021296
:10011E00030774932FF58274043EF583E493F50A76
:10012E007D647C00AF03AE02120307AA04AB057D0B
:10013E000A7C00AF03AE0212030774932FF582748C
:10014E00043EF583E493F50B7D0A7C00AF03AE020B
:10015E0012030774932DF58274043CF583E493F532
:10016E000CAE11AF127C037DE812030774932FF5CA
:10017E008274043EF583E493F50DAE11AF127C0349
:10018E007DE8120307AA04AB057D647C00AF03AEC5
:10019E000212030774932FF58274043EF583E493E1
:1001AE00F50E7D647C00AF03AE02120307AA04AB0A
:1001BE00057D0A7C00AF03AE0212030774932FF580
:1001CE008274043EF583E493F50F7D0A7C00AF0341
:1001DE00AE0212030774932DF58274043CF583E48A
:0601EE0093F51002001A57
:0504070012040CD2A15B
:10040C007F01EFD394007480948040127E02EED36F
:0E041C0094007480948040031E80F31F80E4DF
:01042A0022AF
:0F047900D2A0120407C2A012040CC2A102040CEC
:0A049D00C2A0120407D2A002040C52
:02035C00AD07EB
:10035E00E4FBFAEBC3940874809480501AEDC41336
:10036E001313540124FF92A0ED25E0FD120407C2E1
:10037E00A112040C0B80DCD2A012040CD2A130A06E
:10038E00130AEAD394C87480948040F2C2A1120476
:0B039E000C7F0022C2A112040C7F01A2
:0103A9002231
:1003AA00E4FDFCD2A012040CEDC39408748094807E
:1003BA00501AD2A112040CEC25E0FCA2A0E43342AC
:0E03CA000412040CC2A112040C0D80DCAF045E
:0103D8002202
:1002000002000EE493A3F8E493A34003F68001F206
:1002100008DFF48029E493A3F85407240CC8C333FF
:10022000C4540F4420C8834004F456800146F6DFCE
:10023000E4800B0102040810204080900488E47ED2
:10024000019360BCA3FF543F30E509541FFEE493C3
:10025000A360010ECF54C025E060A840B8E493A38A
:10026000FAE493A3F8E493A3C8C582C8CAC583CAB5
:10027000F0A3C8C582C8CAC583CADFE9DEE780BE6D
:010492000069
:10030700BC000BBE0029EF8DF084FFADF022E4CCDA
:10031700F875F008EF2FFFEE33FEEC33FCEE9DECA3
:10032700984005FCEE9DFE0FD5F0E9E4CEFD22EDE9
:10033700F8F5F0EE8420D21CFEADF075F008EF2F33
:10034700FFED33FD4007985006D5F0F222C398FD24
:050357000FD5F0EA22C1
:00000001FF
